{
  "_format": "hh-sol-artifact-1",
  "contractName": "AutographContract",
  "sourceName": "contracts/AutographContract.sol",
  "abi": [
    {
      "anonymous": false,
      "inputs": [
        {
          "indexed": true,
          "internalType": "address",
          "name": "owner",
          "type": "address"
        },
        {
          "indexed": true,
          "internalType": "address",
          "name": "approved",
          "type": "address"
        },
        {
          "indexed": true,
          "internalType": "uint256",
          "name": "tokenId",
          "type": "uint256"
        }
      ],
      "name": "Approval",
      "type": "event"
    },
    {
      "anonymous": false,
      "inputs": [
        {
          "indexed": true,
          "internalType": "address",
          "name": "owner",
          "type": "address"
        },
        {
          "indexed": true,
          "internalType": "address",
          "name": "operator",
          "type": "address"
        },
        {
          "indexed": false,
          "internalType": "bool",
          "name": "approved",
          "type": "bool"
        }
      ],
      "name": "ApprovalForAll",
      "type": "event"
    },
    {
      "anonymous": false,
      "inputs": [
        {
          "indexed": false,
          "internalType": "uint256",
          "name": "id",
          "type": "uint256"
        },
        {
          "indexed": false,
          "internalType": "address[]",
          "name": "creators",
          "type": "address[]"
        },
        {
          "indexed": true,
          "internalType": "address",
          "name": "owner",
          "type": "address"
        },
        {
          "indexed": false,
          "internalType": "string",
          "name": "imageURI",
          "type": "string"
        },
        {
          "indexed": false,
          "internalType": "string",
          "name": "metadataURI",
          "type": "string"
        }
      ],
      "name": "AutographMinted",
      "type": "event"
    },
    {
      "anonymous": false,
      "inputs": [
        {
          "indexed": true,
          "internalType": "address",
          "name": "from",
          "type": "address"
        },
        {
          "indexed": true,
          "internalType": "address",
          "name": "to",
          "type": "address"
        },
        {
          "indexed": true,
          "internalType": "uint256",
          "name": "tokenId",
          "type": "uint256"
        }
      ],
      "name": "Transfer",
      "type": "event"
    },
    {
      "inputs": [
        {
          "internalType": "address",
          "name": "to",
          "type": "address"
        },
        {
          "internalType": "uint256",
          "name": "tokenId",
          "type": "uint256"
        }
      ],
      "name": "approve",
      "outputs": [],
      "stateMutability": "nonpayable",
      "type": "function"
    },
    {
      "inputs": [
        {
          "internalType": "uint256",
          "name": "",
          "type": "uint256"
        }
      ],
      "name": "autographs",
      "outputs": [
        {
          "internalType": "string",
          "name": "imageURI",
          "type": "string"
        }
      ],
      "stateMutability": "view",
      "type": "function"
    },
    {
      "inputs": [
        {
          "internalType": "address",
          "name": "owner",
          "type": "address"
        }
      ],
      "name": "balanceOf",
      "outputs": [
        {
          "internalType": "uint256",
          "name": "",
          "type": "uint256"
        }
      ],
      "stateMutability": "view",
      "type": "function"
    },
    {
      "inputs": [],
      "name": "baseURI",
      "outputs": [
        {
          "internalType": "string",
          "name": "",
          "type": "string"
        }
      ],
      "stateMutability": "view",
      "type": "function"
    },
    {
      "inputs": [
        {
          "internalType": "uint256",
          "name": "tokenId",
          "type": "uint256"
        }
      ],
      "name": "creatorOf",
      "outputs": [
        {
          "internalType": "address[]",
          "name": "",
          "type": "address[]"
        }
      ],
      "stateMutability": "view",
      "type": "function"
    },
    {
      "inputs": [
        {
          "internalType": "uint256",
          "name": "tokenId",
          "type": "uint256"
        }
      ],
      "name": "getApproved",
      "outputs": [
        {
          "internalType": "address",
          "name": "",
          "type": "address"
        }
      ],
      "stateMutability": "view",
      "type": "function"
    },
    {
      "inputs": [
        {
          "internalType": "uint256",
          "name": "tokenId",
          "type": "uint256"
        }
      ],
      "name": "imageURI",
      "outputs": [
        {
          "internalType": "string",
          "name": "",
          "type": "string"
        }
      ],
      "stateMutability": "view",
      "type": "function"
    },
    {
      "inputs": [],
      "name": "initialize",
      "outputs": [],
      "stateMutability": "nonpayable",
      "type": "function"
    },
    {
      "inputs": [
        {
          "internalType": "address",
          "name": "owner",
          "type": "address"
        },
        {
          "internalType": "address",
          "name": "operator",
          "type": "address"
        }
      ],
      "name": "isApprovedForAll",
      "outputs": [
        {
          "internalType": "bool",
          "name": "",
          "type": "bool"
        }
      ],
      "stateMutability": "view",
      "type": "function"
    },
    {
      "inputs": [
        {
          "internalType": "address",
          "name": "to",
          "type": "address"
        },
        {
          "internalType": "address[]",
          "name": "signers",
          "type": "address[]"
        },
        {
          "internalType": "string",
          "name": "imgURI",
          "type": "string"
        },
        {
          "internalType": "string",
          "name": "metadataURI",
          "type": "string"
        }
      ],
      "name": "mint",
      "outputs": [
        {
          "internalType": "uint256",
          "name": "",
          "type": "uint256"
        }
      ],
      "stateMutability": "nonpayable",
      "type": "function"
    },
    {
      "inputs": [],
      "name": "name",
      "outputs": [
        {
          "internalType": "string",
          "name": "",
          "type": "string"
        }
      ],
      "stateMutability": "view",
      "type": "function"
    },
    {
      "inputs": [
        {
          "internalType": "uint256",
          "name": "tokenId",
          "type": "uint256"
        }
      ],
      "name": "ownerOf",
      "outputs": [
        {
          "internalType": "address",
          "name": "",
          "type": "address"
        }
      ],
      "stateMutability": "view",
      "type": "function"
    },
    {
      "inputs": [
        {
          "internalType": "address",
          "name": "from",
          "type": "address"
        },
        {
          "internalType": "address",
          "name": "to",
          "type": "address"
        },
        {
          "internalType": "uint256",
          "name": "tokenId",
          "type": "uint256"
        }
      ],
      "name": "safeTransferFrom",
      "outputs": [],
      "stateMutability": "nonpayable",
      "type": "function"
    },
    {
      "inputs": [
        {
          "internalType": "address",
          "name": "from",
          "type": "address"
        },
        {
          "internalType": "address",
          "name": "to",
          "type": "address"
        },
        {
          "internalType": "uint256",
          "name": "tokenId",
          "type": "uint256"
        },
        {
          "internalType": "bytes",
          "name": "_data",
          "type": "bytes"
        }
      ],
      "name": "safeTransferFrom",
      "outputs": [],
      "stateMutability": "nonpayable",
      "type": "function"
    },
    {
      "inputs": [
        {
          "internalType": "address",
          "name": "operator",
          "type": "address"
        },
        {
          "internalType": "bool",
          "name": "approved",
          "type": "bool"
        }
      ],
      "name": "setApprovalForAll",
      "outputs": [],
      "stateMutability": "nonpayable",
      "type": "function"
    },
    {
      "inputs": [
        {
          "internalType": "bytes4",
          "name": "interfaceId",
          "type": "bytes4"
        }
      ],
      "name": "supportsInterface",
      "outputs": [
        {
          "internalType": "bool",
          "name": "",
          "type": "bool"
        }
      ],
      "stateMutability": "view",
      "type": "function"
    },
    {
      "inputs": [],
      "name": "symbol",
      "outputs": [
        {
          "internalType": "string",
          "name": "",
          "type": "string"
        }
      ],
      "stateMutability": "view",
      "type": "function"
    },
    {
      "inputs": [
        {
          "internalType": "uint256",
          "name": "index",
          "type": "uint256"
        }
      ],
      "name": "tokenByIndex",
      "outputs": [
        {
          "internalType": "uint256",
          "name": "",
          "type": "uint256"
        }
      ],
      "stateMutability": "view",
      "type": "function"
    },
    {
      "inputs": [
        {
          "internalType": "address",
          "name": "owner",
          "type": "address"
        },
        {
          "internalType": "uint256",
          "name": "index",
          "type": "uint256"
        }
      ],
      "name": "tokenOfOwnerByIndex",
      "outputs": [
        {
          "internalType": "uint256",
          "name": "",
          "type": "uint256"
        }
      ],
      "stateMutability": "view",
      "type": "function"
    },
    {
      "inputs": [
        {
          "internalType": "uint256",
          "name": "tokenId",
          "type": "uint256"
        }
      ],
      "name": "tokenURI",
      "outputs": [
        {
          "internalType": "string",
          "name": "",
          "type": "string"
        }
      ],
      "stateMutability": "view",
      "type": "function"
    },
    {
      "inputs": [],
      "name": "totalSupply",
      "outputs": [
        {
          "internalType": "uint256",
          "name": "",
          "type": "uint256"
        }
      ],
      "stateMutability": "view",
      "type": "function"
    },
    {
      "inputs": [
        {
          "internalType": "address",
          "name": "from",
          "type": "address"
        },
        {
          "internalType": "address",
          "name": "to",
          "type": "address"
        },
        {
          "internalType": "uint256",
          "name": "tokenId",
          "type": "uint256"
        }
      ],
      "name": "transferFrom",
      "outputs": [],
      "stateMutability": "nonpayable",
      "type": "function"
    }
  ],
  "bytecode": "0x608060405234801561001057600080fd5b50613b72806100206000396000f3fe608060405234801561001057600080fd5b50600436106101425760003560e01c8063589a1743116100b85780638f742d161161007c5780638f742d16146108f257806395d89b4114610999578063a22cb46514610a1c578063b88d4fde14610a6c578063c87b56dd14610b71578063e985e9c514610c1857610142565b8063589a1743146107325780636352211e146107b55780636c0360eb1461080d57806370a08231146108905780638129fc1c146108e857610142565b80631ffbb6aa1161010a5780631ffbb6aa146102f157806323b872dd1461050b5780632f745c59146105795780632fb3f57d146105db57806342842e0e146106825780634f6ccce7146106f057610142565b806301ffc9a71461014757806306fdde03146101aa578063081812fc1461022d578063095ea7b31461028557806318160ddd146102d3575b600080fd5b6101926004803603602081101561015d57600080fd5b8101908080357bffffffffffffffffffffffffffffffffffffffffffffffffffffffff19169060200190929190505050610c92565b60405180821515815260200191505060405180910390f35b6101b2610cfa565b6040518080602001828103825283818151815260200191508051906020019080838360005b838110156101f25780820151818401526020810190506101d7565b50505050905090810190601f16801561021f5780820380516001836020036101000a031916815260200191505b509250505060405180910390f35b6102596004803603602081101561024357600080fd5b8101908080359060200190929190505050610d9c565b604051808273ffffffffffffffffffffffffffffffffffffffff16815260200191505060405180910390f35b6102d16004803603604081101561029b57600080fd5b81019080803573ffffffffffffffffffffffffffffffffffffffff16906020019092919080359060200190929190505050610e37565b005b6102db610f7b565b6040518082815260200191505060405180910390f35b6104f56004803603608081101561030757600080fd5b81019080803573ffffffffffffffffffffffffffffffffffffffff1690602001909291908035906020019064010000000081111561034457600080fd5b82018360208201111561035657600080fd5b8035906020019184602083028401116401000000008311171561037857600080fd5b919080806020026020016040519081016040528093929190818152602001838360200280828437600081840152601f19601f820116905080830192505050505050509192919290803590602001906401000000008111156103d857600080fd5b8201836020820111156103ea57600080fd5b8035906020019184600183028401116401000000008311171561040c57600080fd5b91908080601f016020809104026020016040519081016040528093929190818152602001838380828437600081840152601f19601f8201169050808301925050505050505091929192908035906020019064010000000081111561046f57600080fd5b82018360208201111561048157600080fd5b803590602001918460018302840111640100000000831117156104a357600080fd5b91908080601f016020809104026020016040519081016040528093929190818152602001838380828437600081840152601f19601f820116905080830192505050505050509192919290505050610f8c565b6040518082815260200191505060405180910390f35b6105776004803603606081101561052157600080fd5b81019080803573ffffffffffffffffffffffffffffffffffffffff169060200190929190803573ffffffffffffffffffffffffffffffffffffffff169060200190929190803590602001909291905050506111a4565b005b6105c56004803603604081101561058f57600080fd5b81019080803573ffffffffffffffffffffffffffffffffffffffff1690602001909291908035906020019092919050505061121a565b6040518082815260200191505060405180910390f35b610607600480360360208110156105f157600080fd5b8101908080359060200190929190505050611275565b6040518080602001828103825283818151815260200191508051906020019080838360005b8381101561064757808201518184015260208101905061062c565b50505050905090810190601f1680156106745780820380516001836020036101000a031916815260200191505b509250505060405180910390f35b6106ee6004803603606081101561069857600080fd5b81019080803573ffffffffffffffffffffffffffffffffffffffff169060200190929190803573ffffffffffffffffffffffffffffffffffffffff16906020019092919080359060200190929190505050611338565b005b61071c6004803603602081101561070657600080fd5b8101908080359060200190929190505050611358565b6040518082815260200191505060405180910390f35b61075e6004803603602081101561074857600080fd5b810190808035906020019092919050505061137b565b6040518080602001828103825283818151815260200191508051906020019060200280838360005b838110156107a1578082015181840152602081019050610786565b505050509050019250505060405180910390f35b6107e1600480360360208110156107cb57600080fd5b8101908080359060200190929190505050611427565b604051808273ffffffffffffffffffffffffffffffffffffffff16815260200191505060405180910390f35b61081561145e565b6040518080602001828103825283818151815260200191508051906020019080838360005b8381101561085557808201518184015260208101905061083a565b50505050905090810190601f1680156108825780820380516001836020036101000a031916815260200191505b509250505060405180910390f35b6108d2600480360360208110156108a657600080fd5b81019080803573ffffffffffffffffffffffffffffffffffffffff169060200190929190505050611500565b6040518082815260200191505060405180910390f35b6108f06115d5565b005b61091e6004803603602081101561090857600080fd5b8101908080359060200190929190505050611747565b6040518080602001828103825283818151815260200191508051906020019080838360005b8381101561095e578082015181840152602081019050610943565b50505050905090810190601f16801561098b5780820380516001836020036101000a031916815260200191505b509250505060405180910390f35b6109a1611807565b6040518080602001828103825283818151815260200191508051906020019080838360005b838110156109e15780820151818401526020810190506109c6565b50505050905090810190601f168015610a0e5780820380516001836020036101000a031916815260200191505b509250505060405180910390f35b610a6a60048036036040811015610a3257600080fd5b81019080803573ffffffffffffffffffffffffffffffffffffffff1690602001909291908035151590602001909291905050506118a9565b005b610b6f60048036036080811015610a8257600080fd5b81019080803573ffffffffffffffffffffffffffffffffffffffff169060200190929190803573ffffffffffffffffffffffffffffffffffffffff1690602001909291908035906020019092919080359060200190640100000000811115610ae957600080fd5b820183602082011115610afb57600080fd5b80359060200191846001830284011164010000000083111715610b1d57600080fd5b91908080601f016020809104026020016040519081016040528093929190818152602001838380828437600081840152601f19601f820116905080830192505050505050509192919290505050611a5f565b005b610b9d60048036036020811015610b8757600080fd5b8101908080359060200190929190505050611ad7565b6040518080602001828103825283818151815260200191508051906020019080838360005b83811015610bdd578082015181840152602081019050610bc2565b50505050905090810190601f168015610c0a5780820380516001836020036101000a031916815260200191505b509250505060405180910390f35b610c7a60048036036040811015610c2e57600080fd5b81019080803573ffffffffffffffffffffffffffffffffffffffff169060200190929190803573ffffffffffffffffffffffffffffffffffffffff169060200190929190505050611da8565b60405180821515815260200191505060405180910390f35b600060336000837bffffffffffffffffffffffffffffffffffffffffffffffffffffffff19167bffffffffffffffffffffffffffffffffffffffffffffffffffffffff1916815260200190815260200160002060009054906101000a900460ff169050919050565b6060606a8054600181600116156101000203166002900480601f016020809104026020016040519081016040528092919081815260200182805460018160011615610100020316600290048015610d925780601f10610d6757610100808354040283529160200191610d92565b820191906000526020600020905b815481529060010190602001808311610d7557829003601f168201915b5050505050905090565b6000610da782611e3c565b610dfc576040517f08c379a000000000000000000000000000000000000000000000000000000000815260040180806020018281038252602c815260200180613a3b602c913960400191505060405180910390fd5b6068600083815260200190815260200160002060009054906101000a900473ffffffffffffffffffffffffffffffffffffffff169050919050565b6000610e4282611427565b90508073ffffffffffffffffffffffffffffffffffffffff168373ffffffffffffffffffffffffffffffffffffffff161415610ec9576040517f08c379a0000000000000000000000000000000000000000000000000000000008152600401808060200182810382526021815260200180613aeb6021913960400191505060405180910390fd5b8073ffffffffffffffffffffffffffffffffffffffff16610ee8611e59565b73ffffffffffffffffffffffffffffffffffffffff161480610f175750610f1681610f11611e59565b611da8565b5b610f6c576040517f08c379a00000000000000000000000000000000000000000000000000000000081526004018080602001828103825260388152602001806139606038913960400191505060405180910390fd5b610f768383611e61565b505050565b6000610f876066611f1a565b905090565b6000806097805490509050609760405180604001604052808781526020018681525090806001815401808255809150506001900390600052602060002090600202016000909190919091506000820151816000019080519060200190610ff3929190613733565b5060208201518160010190805190602001906110109291906137bd565b50505061101d8682611f2f565b6110278184611f4d565b8573ffffffffffffffffffffffffffffffffffffffff167fa6c8238cbed10fcf0096924959a51559d6442e97d46fbf32a156dd2357b2328b8287878760405180858152602001806020018060200180602001848103845287818151815260200191508051906020019060200280838360005b838110156110b4578082015181840152602081019050611099565b50505050905001848103835286818151815260200191508051906020019080838360005b838110156110f35780820151818401526020810190506110d8565b50505050905090810190601f1680156111205780820380516001836020036101000a031916815260200191505b50848103825285818151815260200191508051906020019080838360005b8381101561115957808201518184015260208101905061113e565b50505050905090810190601f1680156111865780820380516001836020036101000a031916815260200191505b5097505050505050505060405180910390a280915050949350505050565b6111b56111af611e59565b82611fd7565b61120a576040517f08c379a0000000000000000000000000000000000000000000000000000000008152600401808060200182810382526031815260200180613b0c6031913960400191505060405180910390fd5b6112158383836120cb565b505050565b600061126d82606560008673ffffffffffffffffffffffffffffffffffffffff1673ffffffffffffffffffffffffffffffffffffffff16815260200190815260200160002061230e90919063ffffffff16565b905092915050565b6097818154811061128257fe5b9060005260206000209060020201600091509050806001018054600181600116156101000203166002900480601f01602080910402602001604051908101604052809291908181526020018280546001816001161561010002031660029004801561132e5780601f106113035761010080835404028352916020019161132e565b820191906000526020600020905b81548152906001019060200180831161131157829003601f168201915b5050505050905081565b61135383838360405180602001604052806000815250611a5f565b505050565b60008061136f83606661232890919063ffffffff16565b50905080915050919050565b60606097828154811061138a57fe5b906000526020600020906002020160000180548060200260200160405190810160405280929190818152602001828054801561141b57602002820191906000526020600020905b8160009054906101000a900473ffffffffffffffffffffffffffffffffffffffff1673ffffffffffffffffffffffffffffffffffffffff16815260200190600101908083116113d1575b50505050509050919050565b6000611457826040518060600160405280602981526020016139c26029913960666123549092919063ffffffff16565b9050919050565b6060606d8054600181600116156101000203166002900480601f0160208091040260200160405190810160405280929190818152602001828054600181600116156101000203166002900480156114f65780601f106114cb576101008083540402835291602001916114f6565b820191906000526020600020905b8154815290600101906020018083116114d957829003601f168201915b5050505050905090565b60008073ffffffffffffffffffffffffffffffffffffffff168273ffffffffffffffffffffffffffffffffffffffff161415611587576040517f08c379a000000000000000000000000000000000000000000000000000000000815260040180806020018281038252602a815260200180613998602a913960400191505060405180910390fd5b6115ce606560008473ffffffffffffffffffffffffffffffffffffffff1673ffffffffffffffffffffffffffffffffffffffff168152602001908152602001600020612373565b9050919050565b600060019054906101000a900460ff16806115f457506115f3612388565b5b8061160a575060008054906101000a900460ff16155b61165f576040517f08c379a000000000000000000000000000000000000000000000000000000000815260040180806020018281038252602e8152602001806139eb602e913960400191505060405180910390fd5b60008060019054906101000a900460ff1615905080156116af576001600060016101000a81548160ff02191690831515021790555060016000806101000a81548160ff0219169083151502179055505b6117236040518060400160405280601781526020017f48617368696e6b204175746f677261706820546f6b656e0000000000000000008152506040518060400160405280600381526020017f4752460000000000000000000000000000000000000000000000000000000000815250612399565b80156117445760008060016101000a81548160ff0219169083151502179055505b50565b60606097828154811061175657fe5b90600052602060002090600202016001018054600181600116156101000203166002900480601f0160208091040260200160405190810160405280929190818152602001828054600181600116156101000203166002900480156117fb5780601f106117d0576101008083540402835291602001916117fb565b820191906000526020600020905b8154815290600101906020018083116117de57829003601f168201915b50505050509050919050565b6060606b8054600181600116156101000203166002900480601f01602080910402602001604051908101604052809291908181526020018280546001816001161561010002031660029004801561189f5780601f106118745761010080835404028352916020019161189f565b820191906000526020600020905b81548152906001019060200180831161188257829003601f168201915b5050505050905090565b6118b1611e59565b73ffffffffffffffffffffffffffffffffffffffff168273ffffffffffffffffffffffffffffffffffffffff161415611952576040517f08c379a00000000000000000000000000000000000000000000000000000000081526004018080602001828103825260198152602001807f4552433732313a20617070726f766520746f2063616c6c65720000000000000081525060200191505060405180910390fd5b806069600061195f611e59565b73ffffffffffffffffffffffffffffffffffffffff1673ffffffffffffffffffffffffffffffffffffffff16815260200190815260200160002060008473ffffffffffffffffffffffffffffffffffffffff1673ffffffffffffffffffffffffffffffffffffffff16815260200190815260200160002060006101000a81548160ff0219169083151502179055508173ffffffffffffffffffffffffffffffffffffffff16611a0c611e59565b73ffffffffffffffffffffffffffffffffffffffff167f17307eab39ab6107e8899845ad3d59bd9653f200f220920489ca2b5937696c318360405180821515815260200191505060405180910390a35050565b611a70611a6a611e59565b83611fd7565b611ac5576040517f08c379a0000000000000000000000000000000000000000000000000000000008152600401808060200182810382526031815260200180613b0c6031913960400191505060405180910390fd5b611ad1848484846124b3565b50505050565b6060611ae282611e3c565b611b37576040517f08c379a000000000000000000000000000000000000000000000000000000000815260040180806020018281038252602f815260200180613abc602f913960400191505060405180910390fd5b6060606c60008481526020019081526020016000208054600181600116156101000203166002900480601f016020809104026020016040519081016040528092919081815260200182805460018160011615610100020316600290048015611be05780601f10611bb557610100808354040283529160200191611be0565b820191906000526020600020905b815481529060010190602001808311611bc357829003601f168201915b505050505090506060611bf161145e565b9050600081511415611c07578192505050611da3565b600082511115611cd85780826040516020018083805190602001908083835b60208310611c495780518252602082019150602081019050602083039250611c26565b6001836020036101000a03801982511681845116808217855250505050505090500182805190602001908083835b60208310611c9a5780518252602082019150602081019050602083039250611c77565b6001836020036101000a0380198251168184511680821785525050505050509050019250505060405160208183030381529060405292505050611da3565b80611ce285612525565b6040516020018083805190602001908083835b60208310611d185780518252602082019150602081019050602083039250611cf5565b6001836020036101000a03801982511681845116808217855250505050505090500182805190602001908083835b60208310611d695780518252602082019150602081019050602083039250611d46565b6001836020036101000a03801982511681845116808217855250505050505090500192505050604051602081830303815290604052925050505b919050565b6000606960008473ffffffffffffffffffffffffffffffffffffffff1673ffffffffffffffffffffffffffffffffffffffff16815260200190815260200160002060008373ffffffffffffffffffffffffffffffffffffffff1673ffffffffffffffffffffffffffffffffffffffff16815260200190815260200160002060009054906101000a900460ff16905092915050565b6000611e5282606661266c90919063ffffffff16565b9050919050565b600033905090565b816068600083815260200190815260200160002060006101000a81548173ffffffffffffffffffffffffffffffffffffffff021916908373ffffffffffffffffffffffffffffffffffffffff160217905550808273ffffffffffffffffffffffffffffffffffffffff16611ed483611427565b73ffffffffffffffffffffffffffffffffffffffff167f8c5be1e5ebec7d5bd14f71427d1e84f3dd0314c0f7b2291e5b200ac8c7c3b92560405160405180910390a45050565b6000611f2882600001612686565b9050919050565b611f49828260405180602001604052806000815250612697565b5050565b611f5682611e3c565b611fab576040517f08c379a000000000000000000000000000000000000000000000000000000000815260040180806020018281038252602c815260200180613a67602c913960400191505060405180910390fd5b80606c60008481526020019081526020016000209080519060200190611fd29291906137bd565b505050565b6000611fe282611e3c565b612037576040517f08c379a000000000000000000000000000000000000000000000000000000000815260040180806020018281038252602c815260200180613934602c913960400191505060405180910390fd5b600061204283611427565b90508073ffffffffffffffffffffffffffffffffffffffff168473ffffffffffffffffffffffffffffffffffffffff1614806120b157508373ffffffffffffffffffffffffffffffffffffffff1661209984610d9c565b73ffffffffffffffffffffffffffffffffffffffff16145b806120c257506120c18185611da8565b5b91505092915050565b8273ffffffffffffffffffffffffffffffffffffffff166120eb82611427565b73ffffffffffffffffffffffffffffffffffffffff1614612157576040517f08c379a0000000000000000000000000000000000000000000000000000000008152600401808060200182810382526029815260200180613a936029913960400191505060405180910390fd5b600073ffffffffffffffffffffffffffffffffffffffff168273ffffffffffffffffffffffffffffffffffffffff1614156121dd576040517f08c379a00000000000000000000000000000000000000000000000000000000081526004018080602001828103825260248152602001806138ea6024913960400191505060405180910390fd5b6121e8838383612708565b6121f3600082611e61565b61224481606560008673ffffffffffffffffffffffffffffffffffffffff1673ffffffffffffffffffffffffffffffffffffffff16815260200190815260200160002061270d90919063ffffffff16565b5061229681606560008573ffffffffffffffffffffffffffffffffffffffff1673ffffffffffffffffffffffffffffffffffffffff16815260200190815260200160002061272790919063ffffffff16565b506122ad818360666127419092919063ffffffff16565b50808273ffffffffffffffffffffffffffffffffffffffff168473ffffffffffffffffffffffffffffffffffffffff167fddf252ad1be2c89b69c2b068fc378daa952ba7f163c4a11628f55a4df523b3ef60405160405180910390a4505050565b600061231d8360000183612776565b60001c905092915050565b60008060008061233b86600001866127f9565b915091508160001c8160001c9350935050509250929050565b6000612367846000018460001b84612892565b60001c90509392505050565b600061238182600001612988565b9050919050565b600061239330612999565b15905090565b600060019054906101000a900460ff16806123b857506123b7612388565b5b806123ce575060008054906101000a900460ff16155b612423576040517f08c379a000000000000000000000000000000000000000000000000000000000815260040180806020018281038252602e8152602001806139eb602e913960400191505060405180910390fd5b60008060019054906101000a900460ff161590508015612473576001600060016101000a81548160ff02191690831515021790555060016000806101000a81548160ff0219169083151502179055505b61247b6129ac565b612483612aaa565b61248d8383612bb8565b80156124ae5760008060016101000a81548160ff0219169083151502179055505b505050565b6124be8484846120cb565b6124ca84848484612d16565b61251f576040517f08c379a00000000000000000000000000000000000000000000000000000000081526004018080602001828103825260328152602001806138b86032913960400191505060405180910390fd5b50505050565b6060600082141561256d576040518060400160405280600181526020017f30000000000000000000000000000000000000000000000000000000000000008152509050612667565b600082905060005b60008214612597578080600101915050600a828161258f57fe5b049150612575565b60608167ffffffffffffffff811180156125b057600080fd5b506040519080825280601f01601f1916602001820160405280156125e35781602001600182028036833780820191505090505b50905060006001830390508593505b6000841461265f57600a848161260457fe5b0660300160f81b8282806001900393508151811061261e57fe5b60200101907effffffffffffffffffffffffffffffffffffffffffffffffffffffffffffff1916908160001a905350600a848161265757fe5b0493506125f2565b819450505050505b919050565b600061267e836000018360001b612f2f565b905092915050565b600081600001805490509050919050565b6126a18383612f52565b6126ae6000848484612d16565b612703576040517f08c379a00000000000000000000000000000000000000000000000000000000081526004018080602001828103825260328152602001806138b86032913960400191505060405180910390fd5b505050565b505050565b600061271f836000018360001b613146565b905092915050565b6000612739836000018360001b61322e565b905092915050565b600061276d846000018460001b8473ffffffffffffffffffffffffffffffffffffffff1660001b61329e565b90509392505050565b6000818360000180549050116127d7576040517f08c379a00000000000000000000000000000000000000000000000000000000081526004018080602001828103825260228152602001806138966022913960400191505060405180910390fd5b8260000182815481106127e657fe5b9060005260206000200154905092915050565b6000808284600001805490501161285b576040517f08c379a0000000000000000000000000000000000000000000000000000000008152600401808060200182810382526022815260200180613a196022913960400191505060405180910390fd5b600084600001848154811061286c57fe5b906000526020600020906002020190508060000154816001015492509250509250929050565b60008084600101600085815260200190815260200160002054905060008114158390612959576040517f08c379a00000000000000000000000000000000000000000000000000000000081526004018080602001828103825283818151815260200191508051906020019080838360005b8381101561291e578082015181840152602081019050612903565b50505050905090810190601f16801561294b5780820380516001836020036101000a031916815260200191505b509250505060405180910390fd5b5084600001600182038154811061296c57fe5b9060005260206000209060020201600101549150509392505050565b600081600001805490509050919050565b600080823b905060008111915050919050565b600060019054906101000a900460ff16806129cb57506129ca612388565b5b806129e1575060008054906101000a900460ff16155b612a36576040517f08c379a000000000000000000000000000000000000000000000000000000000815260040180806020018281038252602e8152602001806139eb602e913960400191505060405180910390fd5b60008060019054906101000a900460ff161590508015612a86576001600060016101000a81548160ff02191690831515021790555060016000806101000a81548160ff0219169083151502179055505b8015612aa75760008060016101000a81548160ff0219169083151502179055505b50565b600060019054906101000a900460ff1680612ac95750612ac8612388565b5b80612adf575060008054906101000a900460ff16155b612b34576040517f08c379a000000000000000000000000000000000000000000000000000000000815260040180806020018281038252602e8152602001806139eb602e913960400191505060405180910390fd5b60008060019054906101000a900460ff161590508015612b84576001600060016101000a81548160ff02191690831515021790555060016000806101000a81548160ff0219169083151502179055505b612b946301ffc9a760e01b61337a565b8015612bb55760008060016101000a81548160ff0219169083151502179055505b50565b600060019054906101000a900460ff1680612bd75750612bd6612388565b5b80612bed575060008054906101000a900460ff16155b612c42576040517f08c379a000000000000000000000000000000000000000000000000000000000815260040180806020018281038252602e8152602001806139eb602e913960400191505060405180910390fd5b60008060019054906101000a900460ff161590508015612c92576001600060016101000a81548160ff02191690831515021790555060016000806101000a81548160ff0219169083151502179055505b82606a9080519060200190612ca89291906137bd565b5081606b9080519060200190612cbf9291906137bd565b50612cd06380ac58cd60e01b61337a565b612ce0635b5e139f60e01b61337a565b612cf063780e9d6360e01b61337a565b8015612d115760008060016101000a81548160ff0219169083151502179055505b505050565b6000612d378473ffffffffffffffffffffffffffffffffffffffff16612999565b612d445760019050612f27565b6060612eae63150b7a0260e01b612d59611e59565b888787604051602401808573ffffffffffffffffffffffffffffffffffffffff1681526020018473ffffffffffffffffffffffffffffffffffffffff16815260200183815260200180602001828103825283818151815260200191508051906020019080838360005b83811015612ddd578082015181840152602081019050612dc2565b50505050905090810190601f168015612e0a5780820380516001836020036101000a031916815260200191505b5095505050505050604051602081830303815290604052907bffffffffffffffffffffffffffffffffffffffffffffffffffffffff19166020820180517bffffffffffffffffffffffffffffffffffffffffffffffffffffffff83818316178352505050506040518060600160405280603281526020016138b8603291398773ffffffffffffffffffffffffffffffffffffffff166134839092919063ffffffff16565b90506000818060200190516020811015612ec757600080fd5b8101908080519060200190929190505050905063150b7a0260e01b7bffffffffffffffffffffffffffffffffffffffffffffffffffffffff1916817bffffffffffffffffffffffffffffffffffffffffffffffffffffffff191614925050505b949350505050565b600080836001016000848152602001908152602001600020541415905092915050565b600073ffffffffffffffffffffffffffffffffffffffff168273ffffffffffffffffffffffffffffffffffffffff161415612ff5576040517f08c379a00000000000000000000000000000000000000000000000000000000081526004018080602001828103825260208152602001807f4552433732313a206d696e7420746f20746865207a65726f206164647265737381525060200191505060405180910390fd5b612ffe81611e3c565b15613071576040517f08c379a000000000000000000000000000000000000000000000000000000000815260040180806020018281038252601c8152602001807f4552433732313a20746f6b656e20616c7265616479206d696e7465640000000081525060200191505060405180910390fd5b61307d60008383612708565b6130ce81606560008573ffffffffffffffffffffffffffffffffffffffff1673ffffffffffffffffffffffffffffffffffffffff16815260200190815260200160002061272790919063ffffffff16565b506130e5818360666127419092919063ffffffff16565b50808273ffffffffffffffffffffffffffffffffffffffff16600073ffffffffffffffffffffffffffffffffffffffff167fddf252ad1be2c89b69c2b068fc378daa952ba7f163c4a11628f55a4df523b3ef60405160405180910390a45050565b60008083600101600084815260200190815260200160002054905060008114613222576000600182039050600060018660000180549050039050600086600001828154811061319157fe5b90600052602060002001549050808760000184815481106131ae57fe5b90600052602060002001819055506001830187600101600083815260200190815260200160002081905550866000018054806131e657fe5b60019003818190600052602060002001600090559055866001016000878152602001908152602001600020600090556001945050505050613228565b60009150505b92915050565b600061323a838361349b565b613293578260000182908060018154018082558091505060019003906000526020600020016000909190919091505582600001805490508360010160008481526020019081526020016000208190555060019050613298565b600090505b92915050565b600080846001016000858152602001908152602001600020549050600081141561334557846000016040518060400160405280868152602001858152509080600181540180825580915050600190039060005260206000209060020201600090919091909150600082015181600001556020820151816001015550508460000180549050856001016000868152602001908152602001600020819055506001915050613373565b8285600001600183038154811061335857fe5b90600052602060002090600202016001018190555060009150505b9392505050565b63ffffffff60e01b817bffffffffffffffffffffffffffffffffffffffffffffffffffffffff19161415613416576040517f08c379a000000000000000000000000000000000000000000000000000000000815260040180806020018281038252601c8152602001807f4552433136353a20696e76616c696420696e746572666163652069640000000081525060200191505060405180910390fd5b600160336000837bffffffffffffffffffffffffffffffffffffffffffffffffffffffff19167bffffffffffffffffffffffffffffffffffffffffffffffffffffffff1916815260200190815260200160002060006101000a81548160ff02191690831515021790555050565b606061349284846000856134be565b90509392505050565b600080836001016000848152602001908152602001600020541415905092915050565b606082471015613519576040517f08c379a000000000000000000000000000000000000000000000000000000000815260040180806020018281038252602681526020018061390e6026913960400191505060405180910390fd5b61352285612999565b613594576040517f08c379a000000000000000000000000000000000000000000000000000000000815260040180806020018281038252601d8152602001807f416464726573733a2063616c6c20746f206e6f6e2d636f6e747261637400000081525060200191505060405180910390fd5b600060608673ffffffffffffffffffffffffffffffffffffffff1685876040518082805190602001908083835b602083106135e457805182526020820191506020810190506020830392506135c1565b6001836020036101000a03801982511681845116808217855250505050505090500191505060006040518083038185875af1925050503d8060008114613646576040519150601f19603f3d011682016040523d82523d6000602084013e61364b565b606091505b509150915061365b828286613667565b92505050949350505050565b606083156136775782905061372c565b60008351111561368a5782518084602001fd5b816040517f08c379a00000000000000000000000000000000000000000000000000000000081526004018080602001828103825283818151815260200191508051906020019080838360005b838110156136f15780820151818401526020810190506136d6565b50505050905090810190601f16801561371e5780820380516001836020036101000a031916815260200191505b509250505060405180910390fd5b9392505050565b8280548282559060005260206000209081019282156137ac579160200282015b828111156137ab5782518260006101000a81548173ffffffffffffffffffffffffffffffffffffffff021916908373ffffffffffffffffffffffffffffffffffffffff16021790555091602001919060010190613753565b5b5090506137b9919061383d565b5090565b828054600181600116156101000203166002900490600052602060002090601f016020900481019282601f106137fe57805160ff191683800117855561382c565b8280016001018555821561382c579182015b8281111561382b578251825591602001919060010190613810565b5b5090506138399190613878565b5090565b5b8082111561387457600081816101000a81549073ffffffffffffffffffffffffffffffffffffffff02191690555060010161383e565b5090565b5b80821115613891576000816000905550600101613879565b509056fe456e756d657261626c655365743a20696e646578206f7574206f6620626f756e64734552433732313a207472616e7366657220746f206e6f6e20455243373231526563656976657220696d706c656d656e7465724552433732313a207472616e7366657220746f20746865207a65726f2061646472657373416464726573733a20696e73756666696369656e742062616c616e636520666f722063616c6c4552433732313a206f70657261746f7220717565727920666f72206e6f6e6578697374656e7420746f6b656e4552433732313a20617070726f76652063616c6c6572206973206e6f74206f776e6572206e6f7220617070726f76656420666f7220616c6c4552433732313a2062616c616e636520717565727920666f7220746865207a65726f20616464726573734552433732313a206f776e657220717565727920666f72206e6f6e6578697374656e7420746f6b656e496e697469616c697a61626c653a20636f6e747261637420697320616c726561647920696e697469616c697a6564456e756d657261626c654d61703a20696e646578206f7574206f6620626f756e64734552433732313a20617070726f76656420717565727920666f72206e6f6e6578697374656e7420746f6b656e4552433732314d657461646174613a2055524920736574206f66206e6f6e6578697374656e7420746f6b656e4552433732313a207472616e73666572206f6620746f6b656e2074686174206973206e6f74206f776e4552433732314d657461646174613a2055524920717565727920666f72206e6f6e6578697374656e7420746f6b656e4552433732313a20617070726f76616c20746f2063757272656e74206f776e65724552433732313a207472616e736665722063616c6c6572206973206e6f74206f776e6572206e6f7220617070726f766564a2646970667358221220fce4b71c4b3e79a1e8aa0ae961cf4634f336460d15cf5643570d2e79cb2f5f5064736f6c63430007000033",
  "linkReferences": {},
  "deployedLinkReferences": {}
}