{
  "_format": "hh-sol-artifact-1",
  "contractName": "AutographContract",
  "sourceName": "contracts/AutographContract.sol",
  "abi": [
    {
      "anonymous": false,
      "inputs": [
        {
          "indexed": true,
          "internalType": "address",
          "name": "owner",
          "type": "address"
        },
        {
          "indexed": true,
          "internalType": "address",
          "name": "approved",
          "type": "address"
        },
        {
          "indexed": true,
          "internalType": "uint256",
          "name": "tokenId",
          "type": "uint256"
        }
      ],
      "name": "Approval",
      "type": "event"
    },
    {
      "anonymous": false,
      "inputs": [
        {
          "indexed": true,
          "internalType": "address",
          "name": "owner",
          "type": "address"
        },
        {
          "indexed": true,
          "internalType": "address",
          "name": "operator",
          "type": "address"
        },
        {
          "indexed": false,
          "internalType": "bool",
          "name": "approved",
          "type": "bool"
        }
      ],
      "name": "ApprovalForAll",
      "type": "event"
    },
    {
      "anonymous": false,
      "inputs": [
        {
          "indexed": false,
          "internalType": "uint256",
          "name": "id",
          "type": "uint256"
        },
        {
          "indexed": true,
          "internalType": "address",
          "name": "creator",
          "type": "address"
        },
        {
          "indexed": true,
          "internalType": "address",
          "name": "owner",
          "type": "address"
        },
        {
          "indexed": false,
          "internalType": "string",
          "name": "imageURI",
          "type": "string"
        },
        {
          "indexed": false,
          "internalType": "string",
          "name": "metadataURI",
          "type": "string"
        }
      ],
      "name": "AutographMinted",
      "type": "event"
    },
    {
      "anonymous": false,
      "inputs": [
        {
          "indexed": true,
          "internalType": "address",
          "name": "from",
          "type": "address"
        },
        {
          "indexed": true,
          "internalType": "address",
          "name": "to",
          "type": "address"
        },
        {
          "indexed": true,
          "internalType": "uint256",
          "name": "tokenId",
          "type": "uint256"
        }
      ],
      "name": "Transfer",
      "type": "event"
    },
    {
      "inputs": [
        {
          "internalType": "address",
          "name": "to",
          "type": "address"
        },
        {
          "internalType": "uint256",
          "name": "tokenId",
          "type": "uint256"
        }
      ],
      "name": "approve",
      "outputs": [],
      "stateMutability": "nonpayable",
      "type": "function"
    },
    {
      "inputs": [
        {
          "internalType": "uint256",
          "name": "",
          "type": "uint256"
        }
      ],
      "name": "autographs",
      "outputs": [
        {
          "internalType": "address",
          "name": "creator",
          "type": "address"
        },
        {
          "internalType": "string",
          "name": "imageURI",
          "type": "string"
        }
      ],
      "stateMutability": "view",
      "type": "function"
    },
    {
      "inputs": [
        {
          "internalType": "address",
          "name": "owner",
          "type": "address"
        }
      ],
      "name": "balanceOf",
      "outputs": [
        {
          "internalType": "uint256",
          "name": "",
          "type": "uint256"
        }
      ],
      "stateMutability": "view",
      "type": "function"
    },
    {
      "inputs": [],
      "name": "baseURI",
      "outputs": [
        {
          "internalType": "string",
          "name": "",
          "type": "string"
        }
      ],
      "stateMutability": "view",
      "type": "function"
    },
    {
      "inputs": [
        {
          "internalType": "uint256",
          "name": "tokenId",
          "type": "uint256"
        }
      ],
      "name": "creatorOf",
      "outputs": [
        {
          "internalType": "address",
          "name": "",
          "type": "address"
        }
      ],
      "stateMutability": "view",
      "type": "function"
    },
    {
      "inputs": [
        {
          "internalType": "uint256",
          "name": "tokenId",
          "type": "uint256"
        }
      ],
      "name": "getApproved",
      "outputs": [
        {
          "internalType": "address",
          "name": "",
          "type": "address"
        }
      ],
      "stateMutability": "view",
      "type": "function"
    },
    {
      "inputs": [],
      "name": "initialize",
      "outputs": [],
      "stateMutability": "nonpayable",
      "type": "function"
    },
    {
      "inputs": [
        {
          "internalType": "address",
          "name": "owner",
          "type": "address"
        },
        {
          "internalType": "address",
          "name": "operator",
          "type": "address"
        }
      ],
      "name": "isApprovedForAll",
      "outputs": [
        {
          "internalType": "bool",
          "name": "",
          "type": "bool"
        }
      ],
      "stateMutability": "view",
      "type": "function"
    },
    {
      "inputs": [
        {
          "internalType": "address",
          "name": "to",
          "type": "address"
        },
        {
          "internalType": "address",
          "name": "from",
          "type": "address"
        },
        {
          "internalType": "string",
          "name": "imageURI",
          "type": "string"
        },
        {
          "internalType": "string",
          "name": "metadataURI",
          "type": "string"
        }
      ],
      "name": "mint",
      "outputs": [
        {
          "internalType": "uint256",
          "name": "",
          "type": "uint256"
        }
      ],
      "stateMutability": "nonpayable",
      "type": "function"
    },
    {
      "inputs": [],
      "name": "name",
      "outputs": [
        {
          "internalType": "string",
          "name": "",
          "type": "string"
        }
      ],
      "stateMutability": "view",
      "type": "function"
    },
    {
      "inputs": [
        {
          "internalType": "uint256",
          "name": "tokenId",
          "type": "uint256"
        }
      ],
      "name": "ownerOf",
      "outputs": [
        {
          "internalType": "address",
          "name": "",
          "type": "address"
        }
      ],
      "stateMutability": "view",
      "type": "function"
    },
    {
      "inputs": [
        {
          "internalType": "address",
          "name": "from",
          "type": "address"
        },
        {
          "internalType": "address",
          "name": "to",
          "type": "address"
        },
        {
          "internalType": "uint256",
          "name": "tokenId",
          "type": "uint256"
        }
      ],
      "name": "safeTransferFrom",
      "outputs": [],
      "stateMutability": "nonpayable",
      "type": "function"
    },
    {
      "inputs": [
        {
          "internalType": "address",
          "name": "from",
          "type": "address"
        },
        {
          "internalType": "address",
          "name": "to",
          "type": "address"
        },
        {
          "internalType": "uint256",
          "name": "tokenId",
          "type": "uint256"
        },
        {
          "internalType": "bytes",
          "name": "_data",
          "type": "bytes"
        }
      ],
      "name": "safeTransferFrom",
      "outputs": [],
      "stateMutability": "nonpayable",
      "type": "function"
    },
    {
      "inputs": [
        {
          "internalType": "address",
          "name": "operator",
          "type": "address"
        },
        {
          "internalType": "bool",
          "name": "approved",
          "type": "bool"
        }
      ],
      "name": "setApprovalForAll",
      "outputs": [],
      "stateMutability": "nonpayable",
      "type": "function"
    },
    {
      "inputs": [
        {
          "internalType": "bytes4",
          "name": "interfaceId",
          "type": "bytes4"
        }
      ],
      "name": "supportsInterface",
      "outputs": [
        {
          "internalType": "bool",
          "name": "",
          "type": "bool"
        }
      ],
      "stateMutability": "view",
      "type": "function"
    },
    {
      "inputs": [],
      "name": "symbol",
      "outputs": [
        {
          "internalType": "string",
          "name": "",
          "type": "string"
        }
      ],
      "stateMutability": "view",
      "type": "function"
    },
    {
      "inputs": [
        {
          "internalType": "uint256",
          "name": "index",
          "type": "uint256"
        }
      ],
      "name": "tokenByIndex",
      "outputs": [
        {
          "internalType": "uint256",
          "name": "",
          "type": "uint256"
        }
      ],
      "stateMutability": "view",
      "type": "function"
    },
    {
      "inputs": [
        {
          "internalType": "address",
          "name": "owner",
          "type": "address"
        },
        {
          "internalType": "uint256",
          "name": "index",
          "type": "uint256"
        }
      ],
      "name": "tokenOfOwnerByIndex",
      "outputs": [
        {
          "internalType": "uint256",
          "name": "",
          "type": "uint256"
        }
      ],
      "stateMutability": "view",
      "type": "function"
    },
    {
      "inputs": [
        {
          "internalType": "uint256",
          "name": "tokenId",
          "type": "uint256"
        }
      ],
      "name": "tokenURI",
      "outputs": [
        {
          "internalType": "string",
          "name": "",
          "type": "string"
        }
      ],
      "stateMutability": "view",
      "type": "function"
    },
    {
      "inputs": [],
      "name": "totalSupply",
      "outputs": [
        {
          "internalType": "uint256",
          "name": "",
          "type": "uint256"
        }
      ],
      "stateMutability": "view",
      "type": "function"
    },
    {
      "inputs": [
        {
          "internalType": "address",
          "name": "from",
          "type": "address"
        },
        {
          "internalType": "address",
          "name": "to",
          "type": "address"
        },
        {
          "internalType": "uint256",
          "name": "tokenId",
          "type": "uint256"
        }
      ],
      "name": "transferFrom",
      "outputs": [],
      "stateMutability": "nonpayable",
      "type": "function"
    }
  ],
  "bytecode": "0x608060405234801561001057600080fd5b50613889806100206000396000f3fe608060405234801561001057600080fd5b50600436106101375760003560e01c80634f6ccce7116100b85780638129fc1c1161007c5780638129fc1c1461085b57806395d89b4114610865578063a22cb465146108e8578063b88d4fde14610938578063c87b56dd14610a3d578063e985e9c514610ae457610137565b80634f6ccce71461068e578063589a1743146106d05780636352211e146107285780636c0360eb1461078057806370a082311461080357610137565b806323b872dd116100ff57806323b872dd146102e65780632f745c59146103545780632fb3f57d146103b657806342842e0e1461047a5780634cace359146104e857610137565b806301ffc9a71461013c57806306fdde031461019f578063081812fc14610222578063095ea7b31461027a57806318160ddd146102c8575b600080fd5b6101876004803603602081101561015257600080fd5b8101908080357bffffffffffffffffffffffffffffffffffffffffffffffffffffffff19169060200190929190505050610b5e565b60405180821515815260200191505060405180910390f35b6101a7610bc6565b6040518080602001828103825283818151815260200191508051906020019080838360005b838110156101e75780820151818401526020810190506101cc565b50505050905090810190601f1680156102145780820380516001836020036101000a031916815260200191505b509250505060405180910390f35b61024e6004803603602081101561023857600080fd5b8101908080359060200190929190505050610c68565b604051808273ffffffffffffffffffffffffffffffffffffffff16815260200191505060405180910390f35b6102c66004803603604081101561029057600080fd5b81019080803573ffffffffffffffffffffffffffffffffffffffff16906020019092919080359060200190929190505050610d03565b005b6102d0610e47565b6040518082815260200191505060405180910390f35b610352600480360360608110156102fc57600080fd5b81019080803573ffffffffffffffffffffffffffffffffffffffff169060200190929190803573ffffffffffffffffffffffffffffffffffffffff16906020019092919080359060200190929190505050610e58565b005b6103a06004803603604081101561036a57600080fd5b81019080803573ffffffffffffffffffffffffffffffffffffffff16906020019092919080359060200190929190505050610ece565b6040518082815260200191505060405180910390f35b6103e2600480360360208110156103cc57600080fd5b8101908080359060200190929190505050610f29565b604051808373ffffffffffffffffffffffffffffffffffffffff16815260200180602001828103825283818151815260200191508051906020019080838360005b8381101561043e578082015181840152602081019050610423565b50505050905090810190601f16801561046b5780820380516001836020036101000a031916815260200191505b50935050505060405180910390f35b6104e66004803603606081101561049057600080fd5b81019080803573ffffffffffffffffffffffffffffffffffffffff169060200190929190803573ffffffffffffffffffffffffffffffffffffffff16906020019092919080359060200190929190505050611012565b005b610678600480360360808110156104fe57600080fd5b81019080803573ffffffffffffffffffffffffffffffffffffffff169060200190929190803573ffffffffffffffffffffffffffffffffffffffff1690602001909291908035906020019064010000000081111561055b57600080fd5b82018360208201111561056d57600080fd5b8035906020019184600183028401116401000000008311171561058f57600080fd5b91908080601f016020809104026020016040519081016040528093929190818152602001838380828437600081840152601f19601f820116905080830192505050505050509192919290803590602001906401000000008111156105f257600080fd5b82018360208201111561060457600080fd5b8035906020019184600183028401116401000000008311171561062657600080fd5b91908080601f016020809104026020016040519081016040528093929190818152602001838380828437600081840152601f19601f820116905080830192505050505050509192919290505050611032565b6040518082815260200191505060405180910390f35b6106ba600480360360208110156106a457600080fd5b8101908080359060200190929190505050611258565b6040518082815260200191505060405180910390f35b6106fc600480360360208110156106e657600080fd5b810190808035906020019092919050505061127b565b604051808273ffffffffffffffffffffffffffffffffffffffff16815260200191505060405180910390f35b6107546004803603602081101561073e57600080fd5b81019080803590602001909291905050506112c3565b604051808273ffffffffffffffffffffffffffffffffffffffff16815260200191505060405180910390f35b6107886112fa565b6040518080602001828103825283818151815260200191508051906020019080838360005b838110156107c85780820151818401526020810190506107ad565b50505050905090810190601f1680156107f55780820380516001836020036101000a031916815260200191505b509250505060405180910390f35b6108456004803603602081101561081957600080fd5b81019080803573ffffffffffffffffffffffffffffffffffffffff16906020019092919050505061139c565b6040518082815260200191505060405180910390f35b610863611471565b005b61086d6115e3565b6040518080602001828103825283818151815260200191508051906020019080838360005b838110156108ad578082015181840152602081019050610892565b50505050905090810190601f1680156108da5780820380516001836020036101000a031916815260200191505b509250505060405180910390f35b610936600480360360408110156108fe57600080fd5b81019080803573ffffffffffffffffffffffffffffffffffffffff169060200190929190803515159060200190929190505050611685565b005b610a3b6004803603608081101561094e57600080fd5b81019080803573ffffffffffffffffffffffffffffffffffffffff169060200190929190803573ffffffffffffffffffffffffffffffffffffffff16906020019092919080359060200190929190803590602001906401000000008111156109b557600080fd5b8201836020820111156109c757600080fd5b803590602001918460018302840111640100000000831117156109e957600080fd5b91908080601f016020809104026020016040519081016040528093929190818152602001838380828437600081840152601f19601f82011690508083019250505050505050919291929050505061183b565b005b610a6960048036036020811015610a5357600080fd5b81019080803590602001909291905050506118b3565b6040518080602001828103825283818151815260200191508051906020019080838360005b83811015610aa9578082015181840152602081019050610a8e565b50505050905090810190601f168015610ad65780820380516001836020036101000a031916815260200191505b509250505060405180910390f35b610b4660048036036040811015610afa57600080fd5b81019080803573ffffffffffffffffffffffffffffffffffffffff169060200190929190803573ffffffffffffffffffffffffffffffffffffffff169060200190929190505050611b84565b60405180821515815260200191505060405180910390f35b600060336000837bffffffffffffffffffffffffffffffffffffffffffffffffffffffff19167bffffffffffffffffffffffffffffffffffffffffffffffffffffffff1916815260200190815260200160002060009054906101000a900460ff169050919050565b6060606a8054600181600116156101000203166002900480601f016020809104026020016040519081016040528092919081815260200182805460018160011615610100020316600290048015610c5e5780601f10610c3357610100808354040283529160200191610c5e565b820191906000526020600020905b815481529060010190602001808311610c4157829003601f168201915b5050505050905090565b6000610c7382611c18565b610cc8576040517f08c379a000000000000000000000000000000000000000000000000000000000815260040180806020018281038252602c815260200180613752602c913960400191505060405180910390fd5b6068600083815260200190815260200160002060009054906101000a900473ffffffffffffffffffffffffffffffffffffffff169050919050565b6000610d0e826112c3565b90508073ffffffffffffffffffffffffffffffffffffffff168373ffffffffffffffffffffffffffffffffffffffff161415610d95576040517f08c379a00000000000000000000000000000000000000000000000000000000081526004018080602001828103825260218152602001806138026021913960400191505060405180910390fd5b8073ffffffffffffffffffffffffffffffffffffffff16610db4611c35565b73ffffffffffffffffffffffffffffffffffffffff161480610de35750610de281610ddd611c35565b611b84565b5b610e38576040517f08c379a00000000000000000000000000000000000000000000000000000000081526004018080602001828103825260388152602001806136776038913960400191505060405180910390fd5b610e428383611c3d565b505050565b6000610e536066611cf6565b905090565b610e69610e63611c35565b82611d0b565b610ebe576040517f08c379a00000000000000000000000000000000000000000000000000000000081526004018080602001828103825260318152602001806138236031913960400191505060405180910390fd5b610ec9838383611dff565b505050565b6000610f2182606560008673ffffffffffffffffffffffffffffffffffffffff1673ffffffffffffffffffffffffffffffffffffffff16815260200190815260200160002061204290919063ffffffff16565b905092915050565b60978181548110610f3657fe5b90600052602060002090600202016000915090508060000160009054906101000a900473ffffffffffffffffffffffffffffffffffffffff1690806001018054600181600116156101000203166002900480601f0160208091040260200160405190810160405280929190818152602001828054600181600116156101000203166002900480156110085780601f10610fdd57610100808354040283529160200191611008565b820191906000526020600020905b815481529060010190602001808311610feb57829003601f168201915b5050505050905082565b61102d8383836040518060200160405280600081525061183b565b505050565b6000806097805490509050609760405180604001604052808773ffffffffffffffffffffffffffffffffffffffff16815260200186815250908060018154018082558091505060019003906000526020600020906002020160009091909190915060008201518160000160006101000a81548173ffffffffffffffffffffffffffffffffffffffff021916908373ffffffffffffffffffffffffffffffffffffffff16021790555060208201518160010190805190602001906110f692919061350f565b505050611103868261205c565b61110d818461207a565b8573ffffffffffffffffffffffffffffffffffffffff168573ffffffffffffffffffffffffffffffffffffffff167f1477b9b22ac50f8ffe593bb4fd7ababf6a17ef138bb330c88cf3b28f8cd92688838787604051808481526020018060200180602001838103835285818151815260200191508051906020019080838360005b838110156111a957808201518184015260208101905061118e565b50505050905090810190601f1680156111d65780820380516001836020036101000a031916815260200191505b50838103825284818151815260200191508051906020019080838360005b8381101561120f5780820151818401526020810190506111f4565b50505050905090810190601f16801561123c5780820380516001836020036101000a031916815260200191505b509550505050505060405180910390a380915050949350505050565b60008061126f83606661210490919063ffffffff16565b50905080915050919050565b60006097828154811061128a57fe5b906000526020600020906002020160000160009054906101000a900473ffffffffffffffffffffffffffffffffffffffff169050919050565b60006112f3826040518060600160405280602981526020016136d96029913960666121309092919063ffffffff16565b9050919050565b6060606d8054600181600116156101000203166002900480601f0160208091040260200160405190810160405280929190818152602001828054600181600116156101000203166002900480156113925780601f1061136757610100808354040283529160200191611392565b820191906000526020600020905b81548152906001019060200180831161137557829003601f168201915b5050505050905090565b60008073ffffffffffffffffffffffffffffffffffffffff168273ffffffffffffffffffffffffffffffffffffffff161415611423576040517f08c379a000000000000000000000000000000000000000000000000000000000815260040180806020018281038252602a8152602001806136af602a913960400191505060405180910390fd5b61146a606560008473ffffffffffffffffffffffffffffffffffffffff1673ffffffffffffffffffffffffffffffffffffffff16815260200190815260200160002061214f565b9050919050565b600060019054906101000a900460ff1680611490575061148f612164565b5b806114a6575060008054906101000a900460ff16155b6114fb576040517f08c379a000000000000000000000000000000000000000000000000000000000815260040180806020018281038252602e815260200180613702602e913960400191505060405180910390fd5b60008060019054906101000a900460ff16159050801561154b576001600060016101000a81548160ff02191690831515021790555060016000806101000a81548160ff0219169083151502179055505b6115bf6040518060400160405280601781526020017f48617368696e6b204175746f677261706820546f6b656e0000000000000000008152506040518060400160405280600481526020017f5349474e00000000000000000000000000000000000000000000000000000000815250612175565b80156115e05760008060016101000a81548160ff0219169083151502179055505b50565b6060606b8054600181600116156101000203166002900480601f01602080910402602001604051908101604052809291908181526020018280546001816001161561010002031660029004801561167b5780601f106116505761010080835404028352916020019161167b565b820191906000526020600020905b81548152906001019060200180831161165e57829003601f168201915b5050505050905090565b61168d611c35565b73ffffffffffffffffffffffffffffffffffffffff168273ffffffffffffffffffffffffffffffffffffffff16141561172e576040517f08c379a00000000000000000000000000000000000000000000000000000000081526004018080602001828103825260198152602001807f4552433732313a20617070726f766520746f2063616c6c65720000000000000081525060200191505060405180910390fd5b806069600061173b611c35565b73ffffffffffffffffffffffffffffffffffffffff1673ffffffffffffffffffffffffffffffffffffffff16815260200190815260200160002060008473ffffffffffffffffffffffffffffffffffffffff1673ffffffffffffffffffffffffffffffffffffffff16815260200190815260200160002060006101000a81548160ff0219169083151502179055508173ffffffffffffffffffffffffffffffffffffffff166117e8611c35565b73ffffffffffffffffffffffffffffffffffffffff167f17307eab39ab6107e8899845ad3d59bd9653f200f220920489ca2b5937696c318360405180821515815260200191505060405180910390a35050565b61184c611846611c35565b83611d0b565b6118a1576040517f08c379a00000000000000000000000000000000000000000000000000000000081526004018080602001828103825260318152602001806138236031913960400191505060405180910390fd5b6118ad8484848461228f565b50505050565b60606118be82611c18565b611913576040517f08c379a000000000000000000000000000000000000000000000000000000000815260040180806020018281038252602f8152602001806137d3602f913960400191505060405180910390fd5b6060606c60008481526020019081526020016000208054600181600116156101000203166002900480601f0160208091040260200160405190810160405280929190818152602001828054600181600116156101000203166002900480156119bc5780601f10611991576101008083540402835291602001916119bc565b820191906000526020600020905b81548152906001019060200180831161199f57829003601f168201915b5050505050905060606119cd6112fa565b90506000815114156119e3578192505050611b7f565b600082511115611ab45780826040516020018083805190602001908083835b60208310611a255780518252602082019150602081019050602083039250611a02565b6001836020036101000a03801982511681845116808217855250505050505090500182805190602001908083835b60208310611a765780518252602082019150602081019050602083039250611a53565b6001836020036101000a0380198251168184511680821785525050505050509050019250505060405160208183030381529060405292505050611b7f565b80611abe85612301565b6040516020018083805190602001908083835b60208310611af45780518252602082019150602081019050602083039250611ad1565b6001836020036101000a03801982511681845116808217855250505050505090500182805190602001908083835b60208310611b455780518252602082019150602081019050602083039250611b22565b6001836020036101000a03801982511681845116808217855250505050505090500192505050604051602081830303815290604052925050505b919050565b6000606960008473ffffffffffffffffffffffffffffffffffffffff1673ffffffffffffffffffffffffffffffffffffffff16815260200190815260200160002060008373ffffffffffffffffffffffffffffffffffffffff1673ffffffffffffffffffffffffffffffffffffffff16815260200190815260200160002060009054906101000a900460ff16905092915050565b6000611c2e82606661244890919063ffffffff16565b9050919050565b600033905090565b816068600083815260200190815260200160002060006101000a81548173ffffffffffffffffffffffffffffffffffffffff021916908373ffffffffffffffffffffffffffffffffffffffff160217905550808273ffffffffffffffffffffffffffffffffffffffff16611cb0836112c3565b73ffffffffffffffffffffffffffffffffffffffff167f8c5be1e5ebec7d5bd14f71427d1e84f3dd0314c0f7b2291e5b200ac8c7c3b92560405160405180910390a45050565b6000611d0482600001612462565b9050919050565b6000611d1682611c18565b611d6b576040517f08c379a000000000000000000000000000000000000000000000000000000000815260040180806020018281038252602c81526020018061364b602c913960400191505060405180910390fd5b6000611d76836112c3565b90508073ffffffffffffffffffffffffffffffffffffffff168473ffffffffffffffffffffffffffffffffffffffff161480611de557508373ffffffffffffffffffffffffffffffffffffffff16611dcd84610c68565b73ffffffffffffffffffffffffffffffffffffffff16145b80611df65750611df58185611b84565b5b91505092915050565b8273ffffffffffffffffffffffffffffffffffffffff16611e1f826112c3565b73ffffffffffffffffffffffffffffffffffffffff1614611e8b576040517f08c379a00000000000000000000000000000000000000000000000000000000081526004018080602001828103825260298152602001806137aa6029913960400191505060405180910390fd5b600073ffffffffffffffffffffffffffffffffffffffff168273ffffffffffffffffffffffffffffffffffffffff161415611f11576040517f08c379a00000000000000000000000000000000000000000000000000000000081526004018080602001828103825260248152602001806136016024913960400191505060405180910390fd5b611f1c838383612473565b611f27600082611c3d565b611f7881606560008673ffffffffffffffffffffffffffffffffffffffff1673ffffffffffffffffffffffffffffffffffffffff16815260200190815260200160002061247890919063ffffffff16565b50611fca81606560008573ffffffffffffffffffffffffffffffffffffffff1673ffffffffffffffffffffffffffffffffffffffff16815260200190815260200160002061249290919063ffffffff16565b50611fe1818360666124ac9092919063ffffffff16565b50808273ffffffffffffffffffffffffffffffffffffffff168473ffffffffffffffffffffffffffffffffffffffff167fddf252ad1be2c89b69c2b068fc378daa952ba7f163c4a11628f55a4df523b3ef60405160405180910390a4505050565b600061205183600001836124e1565b60001c905092915050565b612076828260405180602001604052806000815250612564565b5050565b61208382611c18565b6120d8576040517f08c379a000000000000000000000000000000000000000000000000000000000815260040180806020018281038252602c81526020018061377e602c913960400191505060405180910390fd5b80606c600084815260200190815260200160002090805190602001906120ff92919061350f565b505050565b60008060008061211786600001866125d5565b915091508160001c8160001c9350935050509250929050565b6000612143846000018460001b8461266e565b60001c90509392505050565b600061215d82600001612764565b9050919050565b600061216f30612775565b15905090565b600060019054906101000a900460ff16806121945750612193612164565b5b806121aa575060008054906101000a900460ff16155b6121ff576040517f08c379a000000000000000000000000000000000000000000000000000000000815260040180806020018281038252602e815260200180613702602e913960400191505060405180910390fd5b60008060019054906101000a900460ff16159050801561224f576001600060016101000a81548160ff02191690831515021790555060016000806101000a81548160ff0219169083151502179055505b612257612788565b61225f612886565b6122698383612994565b801561228a5760008060016101000a81548160ff0219169083151502179055505b505050565b61229a848484611dff565b6122a684848484612af2565b6122fb576040517f08c379a00000000000000000000000000000000000000000000000000000000081526004018080602001828103825260328152602001806135cf6032913960400191505060405180910390fd5b50505050565b60606000821415612349576040518060400160405280600181526020017f30000000000000000000000000000000000000000000000000000000000000008152509050612443565b600082905060005b60008214612373578080600101915050600a828161236b57fe5b049150612351565b60608167ffffffffffffffff8111801561238c57600080fd5b506040519080825280601f01601f1916602001820160405280156123bf5781602001600182028036833780820191505090505b50905060006001830390508593505b6000841461243b57600a84816123e057fe5b0660300160f81b828280600190039350815181106123fa57fe5b60200101907effffffffffffffffffffffffffffffffffffffffffffffffffffffffffffff1916908160001a905350600a848161243357fe5b0493506123ce565b819450505050505b919050565b600061245a836000018360001b612d0b565b905092915050565b600081600001805490509050919050565b505050565b600061248a836000018360001b612d2e565b905092915050565b60006124a4836000018360001b612e16565b905092915050565b60006124d8846000018460001b8473ffffffffffffffffffffffffffffffffffffffff1660001b612e86565b90509392505050565b600081836000018054905011612542576040517f08c379a00000000000000000000000000000000000000000000000000000000081526004018080602001828103825260228152602001806135ad6022913960400191505060405180910390fd5b82600001828154811061255157fe5b9060005260206000200154905092915050565b61256e8383612f62565b61257b6000848484612af2565b6125d0576040517f08c379a00000000000000000000000000000000000000000000000000000000081526004018080602001828103825260328152602001806135cf6032913960400191505060405180910390fd5b505050565b60008082846000018054905011612637576040517f08c379a00000000000000000000000000000000000000000000000000000000081526004018080602001828103825260228152602001806137306022913960400191505060405180910390fd5b600084600001848154811061264857fe5b906000526020600020906002020190508060000154816001015492509250509250929050565b60008084600101600085815260200190815260200160002054905060008114158390612735576040517f08c379a00000000000000000000000000000000000000000000000000000000081526004018080602001828103825283818151815260200191508051906020019080838360005b838110156126fa5780820151818401526020810190506126df565b50505050905090810190601f1680156127275780820380516001836020036101000a031916815260200191505b509250505060405180910390fd5b5084600001600182038154811061274857fe5b9060005260206000209060020201600101549150509392505050565b600081600001805490509050919050565b600080823b905060008111915050919050565b600060019054906101000a900460ff16806127a757506127a6612164565b5b806127bd575060008054906101000a900460ff16155b612812576040517f08c379a000000000000000000000000000000000000000000000000000000000815260040180806020018281038252602e815260200180613702602e913960400191505060405180910390fd5b60008060019054906101000a900460ff161590508015612862576001600060016101000a81548160ff02191690831515021790555060016000806101000a81548160ff0219169083151502179055505b80156128835760008060016101000a81548160ff0219169083151502179055505b50565b600060019054906101000a900460ff16806128a557506128a4612164565b5b806128bb575060008054906101000a900460ff16155b612910576040517f08c379a000000000000000000000000000000000000000000000000000000000815260040180806020018281038252602e815260200180613702602e913960400191505060405180910390fd5b60008060019054906101000a900460ff161590508015612960576001600060016101000a81548160ff02191690831515021790555060016000806101000a81548160ff0219169083151502179055505b6129706301ffc9a760e01b613156565b80156129915760008060016101000a81548160ff0219169083151502179055505b50565b600060019054906101000a900460ff16806129b357506129b2612164565b5b806129c9575060008054906101000a900460ff16155b612a1e576040517f08c379a000000000000000000000000000000000000000000000000000000000815260040180806020018281038252602e815260200180613702602e913960400191505060405180910390fd5b60008060019054906101000a900460ff161590508015612a6e576001600060016101000a81548160ff02191690831515021790555060016000806101000a81548160ff0219169083151502179055505b82606a9080519060200190612a8492919061350f565b5081606b9080519060200190612a9b92919061350f565b50612aac6380ac58cd60e01b613156565b612abc635b5e139f60e01b613156565b612acc63780e9d6360e01b613156565b8015612aed5760008060016101000a81548160ff0219169083151502179055505b505050565b6000612b138473ffffffffffffffffffffffffffffffffffffffff16612775565b612b205760019050612d03565b6060612c8a63150b7a0260e01b612b35611c35565b888787604051602401808573ffffffffffffffffffffffffffffffffffffffff1681526020018473ffffffffffffffffffffffffffffffffffffffff16815260200183815260200180602001828103825283818151815260200191508051906020019080838360005b83811015612bb9578082015181840152602081019050612b9e565b50505050905090810190601f168015612be65780820380516001836020036101000a031916815260200191505b5095505050505050604051602081830303815290604052907bffffffffffffffffffffffffffffffffffffffffffffffffffffffff19166020820180517bffffffffffffffffffffffffffffffffffffffffffffffffffffffff83818316178352505050506040518060600160405280603281526020016135cf603291398773ffffffffffffffffffffffffffffffffffffffff1661325f9092919063ffffffff16565b90506000818060200190516020811015612ca357600080fd5b8101908080519060200190929190505050905063150b7a0260e01b7bffffffffffffffffffffffffffffffffffffffffffffffffffffffff1916817bffffffffffffffffffffffffffffffffffffffffffffffffffffffff191614925050505b949350505050565b600080836001016000848152602001908152602001600020541415905092915050565b60008083600101600084815260200190815260200160002054905060008114612e0a5760006001820390506000600186600001805490500390506000866000018281548110612d7957fe5b9060005260206000200154905080876000018481548110612d9657fe5b9060005260206000200181905550600183018760010160008381526020019081526020016000208190555086600001805480612dce57fe5b60019003818190600052602060002001600090559055866001016000878152602001908152602001600020600090556001945050505050612e10565b60009150505b92915050565b6000612e228383613277565b612e7b578260000182908060018154018082558091505060019003906000526020600020016000909190919091505582600001805490508360010160008481526020019081526020016000208190555060019050612e80565b600090505b92915050565b6000808460010160008581526020019081526020016000205490506000811415612f2d57846000016040518060400160405280868152602001858152509080600181540180825580915050600190039060005260206000209060020201600090919091909150600082015181600001556020820151816001015550508460000180549050856001016000868152602001908152602001600020819055506001915050612f5b565b82856000016001830381548110612f4057fe5b90600052602060002090600202016001018190555060009150505b9392505050565b600073ffffffffffffffffffffffffffffffffffffffff168273ffffffffffffffffffffffffffffffffffffffff161415613005576040517f08c379a00000000000000000000000000000000000000000000000000000000081526004018080602001828103825260208152602001807f4552433732313a206d696e7420746f20746865207a65726f206164647265737381525060200191505060405180910390fd5b61300e81611c18565b15613081576040517f08c379a000000000000000000000000000000000000000000000000000000000815260040180806020018281038252601c8152602001807f4552433732313a20746f6b656e20616c7265616479206d696e7465640000000081525060200191505060405180910390fd5b61308d60008383612473565b6130de81606560008573ffffffffffffffffffffffffffffffffffffffff1673ffffffffffffffffffffffffffffffffffffffff16815260200190815260200160002061249290919063ffffffff16565b506130f5818360666124ac9092919063ffffffff16565b50808273ffffffffffffffffffffffffffffffffffffffff16600073ffffffffffffffffffffffffffffffffffffffff167fddf252ad1be2c89b69c2b068fc378daa952ba7f163c4a11628f55a4df523b3ef60405160405180910390a45050565b63ffffffff60e01b817bffffffffffffffffffffffffffffffffffffffffffffffffffffffff191614156131f2576040517f08c379a000000000000000000000000000000000000000000000000000000000815260040180806020018281038252601c8152602001807f4552433136353a20696e76616c696420696e746572666163652069640000000081525060200191505060405180910390fd5b600160336000837bffffffffffffffffffffffffffffffffffffffffffffffffffffffff19167bffffffffffffffffffffffffffffffffffffffffffffffffffffffff1916815260200190815260200160002060006101000a81548160ff02191690831515021790555050565b606061326e848460008561329a565b90509392505050565b600080836001016000848152602001908152602001600020541415905092915050565b6060824710156132f5576040517f08c379a00000000000000000000000000000000000000000000000000000000081526004018080602001828103825260268152602001806136256026913960400191505060405180910390fd5b6132fe85612775565b613370576040517f08c379a000000000000000000000000000000000000000000000000000000000815260040180806020018281038252601d8152602001807f416464726573733a2063616c6c20746f206e6f6e2d636f6e747261637400000081525060200191505060405180910390fd5b600060608673ffffffffffffffffffffffffffffffffffffffff1685876040518082805190602001908083835b602083106133c0578051825260208201915060208101905060208303925061339d565b6001836020036101000a03801982511681845116808217855250505050505090500191505060006040518083038185875af1925050503d8060008114613422576040519150601f19603f3d011682016040523d82523d6000602084013e613427565b606091505b5091509150613437828286613443565b92505050949350505050565b6060831561345357829050613508565b6000835111156134665782518084602001fd5b816040517f08c379a00000000000000000000000000000000000000000000000000000000081526004018080602001828103825283818151815260200191508051906020019080838360005b838110156134cd5780820151818401526020810190506134b2565b50505050905090810190601f1680156134fa5780820380516001836020036101000a031916815260200191505b509250505060405180910390fd5b9392505050565b828054600181600116156101000203166002900490600052602060002090601f016020900481019282601f1061355057805160ff191683800117855561357e565b8280016001018555821561357e579182015b8281111561357d578251825591602001919060010190613562565b5b50905061358b919061358f565b5090565b5b808211156135a8576000816000905550600101613590565b509056fe456e756d657261626c655365743a20696e646578206f7574206f6620626f756e64734552433732313a207472616e7366657220746f206e6f6e20455243373231526563656976657220696d706c656d656e7465724552433732313a207472616e7366657220746f20746865207a65726f2061646472657373416464726573733a20696e73756666696369656e742062616c616e636520666f722063616c6c4552433732313a206f70657261746f7220717565727920666f72206e6f6e6578697374656e7420746f6b656e4552433732313a20617070726f76652063616c6c6572206973206e6f74206f776e6572206e6f7220617070726f76656420666f7220616c6c4552433732313a2062616c616e636520717565727920666f7220746865207a65726f20616464726573734552433732313a206f776e657220717565727920666f72206e6f6e6578697374656e7420746f6b656e496e697469616c697a61626c653a20636f6e747261637420697320616c726561647920696e697469616c697a6564456e756d657261626c654d61703a20696e646578206f7574206f6620626f756e64734552433732313a20617070726f76656420717565727920666f72206e6f6e6578697374656e7420746f6b656e4552433732314d657461646174613a2055524920736574206f66206e6f6e6578697374656e7420746f6b656e4552433732313a207472616e73666572206f6620746f6b656e2074686174206973206e6f74206f776e4552433732314d657461646174613a2055524920717565727920666f72206e6f6e6578697374656e7420746f6b656e4552433732313a20617070726f76616c20746f2063757272656e74206f776e65724552433732313a207472616e736665722063616c6c6572206973206e6f74206f776e6572206e6f7220617070726f766564a26469706673582212204e9dfb256eb66d0dbb98d867bdd416a92c8bb58d29b6c6c385b39bd188db6ab864736f6c63430007000033",
  "linkReferences": {},
  "deployedLinkReferences": {}
}