{
  "_format": "hh-sol-artifact-1",
  "contractName": "AutographContract",
  "sourceName": "contracts/AutographContract.sol",
  "abi": [
    {
      "anonymous": false,
      "inputs": [
        {
          "indexed": true,
          "internalType": "address",
          "name": "owner",
          "type": "address"
        },
        {
          "indexed": true,
          "internalType": "address",
          "name": "approved",
          "type": "address"
        },
        {
          "indexed": true,
          "internalType": "uint256",
          "name": "tokenId",
          "type": "uint256"
        }
      ],
      "name": "Approval",
      "type": "event"
    },
    {
      "anonymous": false,
      "inputs": [
        {
          "indexed": true,
          "internalType": "address",
          "name": "owner",
          "type": "address"
        },
        {
          "indexed": true,
          "internalType": "address",
          "name": "operator",
          "type": "address"
        },
        {
          "indexed": false,
          "internalType": "bool",
          "name": "approved",
          "type": "bool"
        }
      ],
      "name": "ApprovalForAll",
      "type": "event"
    },
    {
      "anonymous": false,
      "inputs": [
        {
          "indexed": false,
          "internalType": "uint256",
          "name": "id",
          "type": "uint256"
        },
        {
          "indexed": false,
          "internalType": "address[]",
          "name": "creators",
          "type": "address[]"
        },
        {
          "indexed": true,
          "internalType": "address",
          "name": "owner",
          "type": "address"
        },
        {
          "indexed": false,
          "internalType": "string",
          "name": "imageURI",
          "type": "string"
        },
        {
          "indexed": false,
          "internalType": "string",
          "name": "metadataURI",
          "type": "string"
        }
      ],
      "name": "AutographMinted",
      "type": "event"
    },
    {
      "anonymous": false,
      "inputs": [
        {
          "indexed": true,
          "internalType": "address",
          "name": "from",
          "type": "address"
        },
        {
          "indexed": true,
          "internalType": "address",
          "name": "to",
          "type": "address"
        },
        {
          "indexed": true,
          "internalType": "uint256",
          "name": "tokenId",
          "type": "uint256"
        }
      ],
      "name": "Transfer",
      "type": "event"
    },
    {
      "inputs": [
        {
          "internalType": "address",
          "name": "to",
          "type": "address"
        },
        {
          "internalType": "uint256",
          "name": "tokenId",
          "type": "uint256"
        }
      ],
      "name": "approve",
      "outputs": [],
      "stateMutability": "nonpayable",
      "type": "function"
    },
    {
      "inputs": [
        {
          "internalType": "uint256",
          "name": "",
          "type": "uint256"
        }
      ],
      "name": "autographs",
      "outputs": [
        {
          "internalType": "string",
          "name": "imageURI",
          "type": "string"
        }
      ],
      "stateMutability": "view",
      "type": "function"
    },
    {
      "inputs": [
        {
          "internalType": "address",
          "name": "owner",
          "type": "address"
        }
      ],
      "name": "balanceOf",
      "outputs": [
        {
          "internalType": "uint256",
          "name": "",
          "type": "uint256"
        }
      ],
      "stateMutability": "view",
      "type": "function"
    },
    {
      "inputs": [
        {
          "internalType": "uint256",
          "name": "tokenId",
          "type": "uint256"
        }
      ],
      "name": "creatorOf",
      "outputs": [
        {
          "internalType": "address[]",
          "name": "",
          "type": "address[]"
        }
      ],
      "stateMutability": "view",
      "type": "function"
    },
    {
      "inputs": [
        {
          "internalType": "uint256",
          "name": "tokenId",
          "type": "uint256"
        }
      ],
      "name": "getApproved",
      "outputs": [
        {
          "internalType": "address",
          "name": "",
          "type": "address"
        }
      ],
      "stateMutability": "view",
      "type": "function"
    },
    {
      "inputs": [
        {
          "internalType": "uint256",
          "name": "tokenId",
          "type": "uint256"
        }
      ],
      "name": "imageURI",
      "outputs": [
        {
          "internalType": "string",
          "name": "",
          "type": "string"
        }
      ],
      "stateMutability": "view",
      "type": "function"
    },
    {
      "inputs": [
        {
          "internalType": "address",
          "name": "_royaltiesToken",
          "type": "address"
        },
        {
          "internalType": "uint256",
          "name": "_royaltiesAmount",
          "type": "uint256"
        }
      ],
      "name": "initialize",
      "outputs": [],
      "stateMutability": "nonpayable",
      "type": "function"
    },
    {
      "inputs": [
        {
          "internalType": "address",
          "name": "owner",
          "type": "address"
        },
        {
          "internalType": "address",
          "name": "operator",
          "type": "address"
        }
      ],
      "name": "isApprovedForAll",
      "outputs": [
        {
          "internalType": "bool",
          "name": "",
          "type": "bool"
        }
      ],
      "stateMutability": "view",
      "type": "function"
    },
    {
      "inputs": [
        {
          "internalType": "address",
          "name": "to",
          "type": "address"
        },
        {
          "internalType": "address[]",
          "name": "signers",
          "type": "address[]"
        },
        {
          "internalType": "string",
          "name": "imgURI",
          "type": "string"
        },
        {
          "internalType": "string",
          "name": "metadataURI",
          "type": "string"
        }
      ],
      "name": "mint",
      "outputs": [
        {
          "internalType": "uint256",
          "name": "",
          "type": "uint256"
        }
      ],
      "stateMutability": "nonpayable",
      "type": "function"
    },
    {
      "inputs": [],
      "name": "name",
      "outputs": [
        {
          "internalType": "string",
          "name": "",
          "type": "string"
        }
      ],
      "stateMutability": "view",
      "type": "function"
    },
    {
      "inputs": [
        {
          "internalType": "uint256",
          "name": "tokenId",
          "type": "uint256"
        }
      ],
      "name": "ownerOf",
      "outputs": [
        {
          "internalType": "address",
          "name": "",
          "type": "address"
        }
      ],
      "stateMutability": "view",
      "type": "function"
    },
    {
      "inputs": [],
      "name": "royaltiesAmount",
      "outputs": [
        {
          "internalType": "uint256",
          "name": "",
          "type": "uint256"
        }
      ],
      "stateMutability": "view",
      "type": "function"
    },
    {
      "inputs": [],
      "name": "royaltiesToken",
      "outputs": [
        {
          "internalType": "address",
          "name": "",
          "type": "address"
        }
      ],
      "stateMutability": "view",
      "type": "function"
    },
    {
      "inputs": [
        {
          "internalType": "address",
          "name": "from",
          "type": "address"
        },
        {
          "internalType": "address",
          "name": "to",
          "type": "address"
        },
        {
          "internalType": "uint256",
          "name": "tokenId",
          "type": "uint256"
        }
      ],
      "name": "safeTransferFrom",
      "outputs": [],
      "stateMutability": "nonpayable",
      "type": "function"
    },
    {
      "inputs": [
        {
          "internalType": "address",
          "name": "from",
          "type": "address"
        },
        {
          "internalType": "address",
          "name": "to",
          "type": "address"
        },
        {
          "internalType": "uint256",
          "name": "tokenId",
          "type": "uint256"
        },
        {
          "internalType": "bytes",
          "name": "_data",
          "type": "bytes"
        }
      ],
      "name": "safeTransferFrom",
      "outputs": [],
      "stateMutability": "nonpayable",
      "type": "function"
    },
    {
      "inputs": [
        {
          "internalType": "address",
          "name": "operator",
          "type": "address"
        },
        {
          "internalType": "bool",
          "name": "approved",
          "type": "bool"
        }
      ],
      "name": "setApprovalForAll",
      "outputs": [],
      "stateMutability": "nonpayable",
      "type": "function"
    },
    {
      "inputs": [
        {
          "internalType": "bytes4",
          "name": "interfaceId",
          "type": "bytes4"
        }
      ],
      "name": "supportsInterface",
      "outputs": [
        {
          "internalType": "bool",
          "name": "",
          "type": "bool"
        }
      ],
      "stateMutability": "view",
      "type": "function"
    },
    {
      "inputs": [],
      "name": "symbol",
      "outputs": [
        {
          "internalType": "string",
          "name": "",
          "type": "string"
        }
      ],
      "stateMutability": "view",
      "type": "function"
    },
    {
      "inputs": [
        {
          "internalType": "uint256",
          "name": "tokenId",
          "type": "uint256"
        }
      ],
      "name": "tokenURI",
      "outputs": [
        {
          "internalType": "string",
          "name": "",
          "type": "string"
        }
      ],
      "stateMutability": "view",
      "type": "function"
    },
    {
      "inputs": [],
      "name": "totalSupply",
      "outputs": [
        {
          "internalType": "uint256",
          "name": "",
          "type": "uint256"
        }
      ],
      "stateMutability": "view",
      "type": "function"
    },
    {
      "inputs": [
        {
          "internalType": "address",
          "name": "from",
          "type": "address"
        },
        {
          "internalType": "address",
          "name": "to",
          "type": "address"
        },
        {
          "internalType": "uint256",
          "name": "tokenId",
          "type": "uint256"
        }
      ],
      "name": "transferFrom",
      "outputs": [],
      "stateMutability": "nonpayable",
      "type": "function"
    }
  ],
  "bytecode": "0x608060405234801561001057600080fd5b506122bf806100206000396000f3fe608060405234801561001057600080fd5b50600436106101375760003560e01c80636352211e116100b8578063b88d4fde1161007c578063b88d4fde14610284578063c87b56dd14610297578063cd6dc687146102aa578063e985e9c5146102bd578063eef571a6146102d0578063f1082910146102d857610137565b80636352211e1461023057806370a08231146102435780638f742d161461025657806395d89b4114610269578063a22cb4651461027157610137565b80631ffbb6aa116100ff5780631ffbb6aa146101c457806323b872dd146101d75780632fb3f57d146101ea57806342842e0e146101fd578063589a17431461021057610137565b806301ffc9a71461013c57806306fdde0314610165578063081812fc1461017a578063095ea7b31461019a57806318160ddd146101af575b600080fd5b61014f61014a366004611a61565b6102e0565b60405161015c9190611bd7565b60405180910390f35b61016d610328565b60405161015c9190611be2565b61018d610188366004611a99565b6103ba565b60405161015c9190611b4f565b6101ad6101a8366004611a1c565b610406565b005b6101b761049e565b60405161015c91906120cd565b6101b76101d23660046118ed565b6104a4565b6101ad6101e5366004611839565b610583565b61016d6101f8366004611a99565b6105c5565b6101ad61020b366004611839565b61067b565b61022361021e366004611a99565b6106a0565b60405161015c9190611bc4565b61018d61023e366004611a99565b61072d565b6101b76102513660046117ed565b610762565b61016d610264366004611a99565b6107a6565b61016d610860565b6101ad61027f3660046119e6565b61086f565b6101ad610292366004611874565b61093d565b61016d6102a5366004611a99565b610986565b6101ad6102b8366004611a1c565b610991565b61014f6102cb366004611807565b610a81565b61018d610aaf565b6101b7610abe565b60006001600160e01b031982166380ac58cd60e01b148061031157506001600160e01b03198216635b5e139f60e01b145b80610320575061032082610ac4565b90505b919050565b606060658054610337906121b9565b80601f0160208091040260200160405190810160405280929190818152602001828054610363906121b9565b80156103b05780601f10610385576101008083540402835291602001916103b0565b820191906000526020600020905b81548152906001019060200180831161039357829003601f168201915b5050505050905090565b60006103c582610add565b6103ea5760405162461bcd60e51b81526004016103e190611f57565b60405180910390fd5b506000908152606960205260409020546001600160a01b031690565b60006104118261072d565b9050806001600160a01b0316836001600160a01b031614156104455760405162461bcd60e51b81526004016103e19061203b565b806001600160a01b0316610457610afa565b6001600160a01b031614806104735750610473816102cb610afa565b61048f5760405162461bcd60e51b81526004016103e190611d45565b6104998383610afe565b505050565b60cb5490565b60cb8054604080518082019091528581526020808201869052600183018455600093845281518051600285027fa7ce836d032b2bf62b7e2097a8e0a6d8aeb35405ad15271e96d3b0188a1d06fb0192610501928492910190611671565b50602082810151805161051a92600185019201906116d6565b5050506105278682610b6c565b6105318184610b8a565b856001600160a01b03167fa6c8238cbed10fcf0096924959a51559d6442e97d46fbf32a156dd2357b2328b8287878760405161057094939291906120d6565b60405180910390a290505b949350505050565b61059461058e610afa565b82610bce565b6105b05760405162461bcd60e51b81526004016103e19061207c565b6105ba8382610c4b565b610499838383610e75565b60cb81815481106105d557600080fd5b90600052602060002090600202016000915090508060010180546105f8906121b9565b80601f0160208091040260200160405190810160405280929190818152602001828054610624906121b9565b80156106715780601f1061064657610100808354040283529160200191610671565b820191906000526020600020905b81548152906001019060200180831161065457829003601f168201915b5050505050905081565b6106858382610c4b565b6104998383836040518060200160405280600081525061093d565b606060cb82815481106106c357634e487b7160e01b600052603260045260246000fd5b6000918252602091829020600290910201805460408051828502810185019091528181529283018282801561072157602002820191906000526020600020905b81546001600160a01b03168152600190910190602001808311610703575b50505050509050919050565b6000818152606760205260408120546001600160a01b0316806103205760405162461bcd60e51b81526004016103e190611dec565b60006001600160a01b03821661078a5760405162461bcd60e51b81526004016103e190611da2565b506001600160a01b031660009081526068602052604090205490565b606060cb82815481106107c957634e487b7160e01b600052603260045260246000fd5b906000526020600020906002020160010180546107e5906121b9565b80601f0160208091040260200160405190810160405280929190818152602001828054610811906121b9565b80156107215780601f1061083357610100808354040283529160200191610721565b820191906000526020600020905b8154815290600101906020018083116108415750939695505050505050565b606060668054610337906121b9565b610877610afa565b6001600160a01b0316826001600160a01b031614156108a85760405162461bcd60e51b81526004016103e190611cc2565b80606a60006108b5610afa565b6001600160a01b03908116825260208083019390935260409182016000908120918716808252919093529120805460ff1916921515929092179091556108f9610afa565b6001600160a01b03167f17307eab39ab6107e8899845ad3d59bd9653f200f220920489ca2b5937696c31836040516109319190611bd7565b60405180910390a35050565b61094e610948610afa565b83610bce565b61096a5760405162461bcd60e51b81526004016103e19061207c565b6109748483610c4b565b61098084848484610fa2565b50505050565b606061032082610fd5565b600054610100900460ff16806109aa575060005460ff16155b6109c65760405162461bcd60e51b81526004016103e190611e83565b600054610100900460ff161580156109f1576000805460ff1961ff0019909116610100171660011790555b610a4b6040518060400160405280601781526020017f48617368696e6b204175746f677261706820546f6b656e0000000000000000008152506040518060400160405280600381526020016223a92360e91b8152506110ee565b60c980546001600160a01b0319166001600160a01b03851617905560ca8290558015610499576000805461ff0019169055505050565b6001600160a01b039182166000908152606a6020908152604080832093909416825291909152205460ff1690565b60c9546001600160a01b031681565b60ca5481565b6001600160e01b031981166301ffc9a760e01b14919050565b6000908152606760205260409020546001600160a01b0316151590565b3390565b600081815260696020526040902080546001600160a01b0319166001600160a01b0384169081179091558190610b338261072d565b6001600160a01b03167f8c5be1e5ebec7d5bd14f71427d1e84f3dd0314c0f7b2291e5b200ac8c7c3b92560405160405180910390a45050565b610b8682826040518060200160405280600081525061117e565b5050565b610b9382610add565b610baf5760405162461bcd60e51b81526004016103e190611e35565b60008281526097602090815260409091208251610499928401906116d6565b6000610bd982610add565b610bf55760405162461bcd60e51b81526004016103e190611cf9565b6000610c008361072d565b9050806001600160a01b0316846001600160a01b03161480610c3b5750836001600160a01b0316610c30846103ba565b6001600160a01b0316145b8061057b575061057b8185610a81565b60c95460cb80546001600160a01b03909216916000919084908110610c8057634e487b7160e01b600052603260045260246000fd5b906000526020600020906002020160405180604001604052908160008201805480602002602001604051908101604052809291908181526020018280548015610cf257602002820191906000526020600020905b81546001600160a01b03168152600190910190602001808311610cd4575b50505050508152602001600182018054610d0b906121b9565b80601f0160208091040260200160405190810160405280929190818152602001828054610d37906121b9565b8015610d845780601f10610d5957610100808354040283529160200191610d84565b820191906000526020600020905b815481529060010190602001808311610d6757829003601f168201915b505050919092525050815151919250600090505b81811015610e6d57836001600160a01b03166323b872dd8785600001518481518110610dd457634e487b7160e01b600052603260045260246000fd5b60200260200101518560ca54610dea9190612162565b6040518463ffffffff1660e01b8152600401610e0893929190611b63565b602060405180830381600087803b158015610e2257600080fd5b505af1158015610e36573d6000803e3d6000fd5b505050506040513d601f19601f82011682018060405250810190610e5a9190611a45565b5080610e65816121f4565b915050610d98565b505050505050565b826001600160a01b0316610e888261072d565b6001600160a01b031614610eae5760405162461bcd60e51b81526004016103e190611fa3565b6001600160a01b038216610ed45760405162461bcd60e51b81526004016103e190611c7e565b610edf838383610499565b610eea600082610afe565b6001600160a01b0383166000908152606860205260408120805460019290610f13908490612176565b90915550506001600160a01b0382166000908152606860205260408120805460019290610f4190849061214a565b909155505060008181526067602052604080822080546001600160a01b0319166001600160a01b0386811691821790925591518493918716917fddf252ad1be2c89b69c2b068fc378daa952ba7f163c4a11628f55a4df523b3ef91a4505050565b610fad848484610e75565b610fb9848484846111b1565b6109805760405162461bcd60e51b81526004016103e190611bf5565b6060610fe082610add565b610ffc5760405162461bcd60e51b81526004016103e190611f06565b60008281526097602052604081208054611015906121b9565b80601f0160208091040260200160405190810160405280929190818152602001828054611041906121b9565b801561108e5780601f106110635761010080835404028352916020019161108e565b820191906000526020600020905b81548152906001019060200180831161107157829003601f168201915b50505050509050600061109f6112c9565b90508051600014156110b357509050610323565b8151156110e55780826040516020016110cd929190611b20565b60405160208183030381529060405292505050610323565b61057b846112db565b600054610100900460ff1680611107575060005460ff16155b6111235760405162461bcd60e51b81526004016103e190611e83565b600054610100900460ff1615801561114e576000805460ff1961ff0019909116610100171660011790555b61115661135e565b61115e61135e565b61116883836113d3565b8015610499576000805461ff0019169055505050565b6111888383611471565b61119560008484846111b1565b6104995760405162461bcd60e51b81526004016103e190611bf5565b60006111c5846001600160a01b0316611550565b156112c157836001600160a01b031663150b7a026111e1610afa565b8786866040518563ffffffff1660e01b81526004016112039493929190611b87565b602060405180830381600087803b15801561121d57600080fd5b505af192505050801561124d575060408051601f3d908101601f1916820190925261124a91810190611a7d565b60015b6112a7573d80801561127b576040519150601f19603f3d011682016040523d82523d6000602084013e611280565b606091505b50805161129f5760405162461bcd60e51b81526004016103e190611bf5565b805181602001fd5b6001600160e01b031916630a85bd0160e11b14905061057b565b50600161057b565b60408051602081019091526000815290565b60606112e682610add565b6113025760405162461bcd60e51b81526004016103e190611fec565b600061130c6112c9565b9050600081511161132c5760405180602001604052806000815250611357565b8061133684611556565b604051602001611347929190611b20565b6040516020818303038152906040525b9392505050565b600054610100900460ff1680611377575060005460ff16155b6113935760405162461bcd60e51b81526004016103e190611e83565b600054610100900460ff161580156113be576000805460ff1961ff0019909116610100171660011790555b80156113d0576000805461ff00191690555b50565b600054610100900460ff16806113ec575060005460ff16155b6114085760405162461bcd60e51b81526004016103e190611e83565b600054610100900460ff16158015611433576000805460ff1961ff0019909116610100171660011790555b82516114469060659060208601906116d6565b50815161145a9060669060208501906116d6565b508015610499576000805461ff0019169055505050565b6001600160a01b0382166114975760405162461bcd60e51b81526004016103e190611ed1565b6114a081610add565b156114bd5760405162461bcd60e51b81526004016103e190611c47565b6114c960008383610499565b6001600160a01b03821660009081526068602052604081208054600192906114f290849061214a565b909155505060008181526067602052604080822080546001600160a01b0319166001600160a01b03861690811790915590518392907fddf252ad1be2c89b69c2b068fc378daa952ba7f163c4a11628f55a4df523b3ef908290a45050565b3b151590565b60608161157b57506040805180820190915260018152600360fc1b6020820152610323565b8160005b81156115a5578061158f816121f4565b915061159e9050600a83612162565b915061157f565b60008167ffffffffffffffff8111156115ce57634e487b7160e01b600052604160045260246000fd5b6040519080825280601f01601f1916602001820160405280156115f8576020820181803683370190505b5090505b841561057b5761160d600183612176565b915061161a600a8661220f565b61162590603061214a565b60f81b81838151811061164857634e487b7160e01b600052603260045260246000fd5b60200101906001600160f81b031916908160001a90535061166a600a86612162565b94506115fc565b8280548282559060005260206000209081019282156116c6579160200282015b828111156116c657825182546001600160a01b0319166001600160a01b03909116178255602090920191600190910190611691565b506116d292915061174a565b5090565b8280546116e2906121b9565b90600052602060002090601f01602090048101928261170457600085556116c6565b82601f1061171d57805160ff19168380011785556116c6565b828001600101855582156116c6579182015b828111156116c657825182559160200191906001019061172f565b5b808211156116d2576000815560010161174b565b600067ffffffffffffffff8311156117795761177961224f565b61178c601f8401601f1916602001612120565b90508281528383830111156117a057600080fd5b828260208301376000602084830101529392505050565b80356001600160a01b038116811461032357600080fd5b600082601f8301126117de578081fd5b6113578383356020850161175f565b6000602082840312156117fe578081fd5b611357826117b7565b60008060408385031215611819578081fd5b611822836117b7565b9150611830602084016117b7565b90509250929050565b60008060006060848603121561184d578081fd5b611856846117b7565b9250611864602085016117b7565b9150604084013590509250925092565b60008060008060808587031215611889578081fd5b611892856117b7565b93506118a0602086016117b7565b925060408501359150606085013567ffffffffffffffff8111156118c2578182fd5b8501601f810187136118d2578182fd5b6118e18782356020840161175f565b91505092959194509250565b60008060008060808587031215611902578384fd5b61190b856117b7565b935060208086013567ffffffffffffffff80821115611928578586fd5b818801915088601f83011261193b578586fd5b81358181111561194d5761194d61224f565b83810261195b858201612120565b8281528581019085870183870188018e1015611975578a8bfd5b8a96505b8487101561199e5761198a816117b7565b835260019690960195918701918701611979565b50985050505060408801359250808311156119b7578485fd5b6119c389848a016117ce565b945060608801359250808311156119d8578384fd5b50506118e1878288016117ce565b600080604083850312156119f8578182fd5b611a01836117b7565b91506020830135611a1181612265565b809150509250929050565b60008060408385031215611a2e578182fd5b611a37836117b7565b946020939093013593505050565b600060208284031215611a56578081fd5b815161135781612265565b600060208284031215611a72578081fd5b813561135781612273565b600060208284031215611a8e578081fd5b815161135781612273565b600060208284031215611aaa578081fd5b5035919050565b6000815180845260208085019450808401835b83811015611ae95781516001600160a01b031687529582019590820190600101611ac4565b509495945050505050565b60008151808452611b0c81602086016020860161218d565b601f01601f19169290920160200192915050565b60008351611b3281846020880161218d565b835190830190611b4681836020880161218d565b01949350505050565b6001600160a01b0391909116815260200190565b6001600160a01b039384168152919092166020820152604081019190915260600190565b6001600160a01b0385811682528416602082015260408101839052608060608201819052600090611bba90830184611af4565b9695505050505050565b6000602082526113576020830184611ab1565b901515815260200190565b6000602082526113576020830184611af4565b60208082526032908201527f4552433732313a207472616e7366657220746f206e6f6e20455243373231526560408201527131b2b4bb32b91034b6b83632b6b2b73a32b960711b606082015260800190565b6020808252601c908201527f4552433732313a20746f6b656e20616c7265616479206d696e74656400000000604082015260600190565b60208082526024908201527f4552433732313a207472616e7366657220746f20746865207a65726f206164646040820152637265737360e01b606082015260800190565b60208082526019908201527f4552433732313a20617070726f766520746f2063616c6c657200000000000000604082015260600190565b6020808252602c908201527f4552433732313a206f70657261746f7220717565727920666f72206e6f6e657860408201526b34b9ba32b73a103a37b5b2b760a11b606082015260800190565b60208082526038908201527f4552433732313a20617070726f76652063616c6c6572206973206e6f74206f7760408201527f6e6572206e6f7220617070726f76656420666f7220616c6c0000000000000000606082015260800190565b6020808252602a908201527f4552433732313a2062616c616e636520717565727920666f7220746865207a65604082015269726f206164647265737360b01b606082015260800190565b60208082526029908201527f4552433732313a206f776e657220717565727920666f72206e6f6e657869737460408201526832b73a103a37b5b2b760b91b606082015260800190565b6020808252602e908201527f45524337323155524953746f726167653a2055524920736574206f66206e6f6e60408201526d32bc34b9ba32b73a103a37b5b2b760911b606082015260800190565b6020808252602e908201527f496e697469616c697a61626c653a20636f6e747261637420697320616c72656160408201526d191e481a5b9a5d1a585b1a5e995960921b606082015260800190565b6020808252818101527f4552433732313a206d696e7420746f20746865207a65726f2061646472657373604082015260600190565b60208082526031908201527f45524337323155524953746f726167653a2055524920717565727920666f72206040820152703737b732bc34b9ba32b73a103a37b5b2b760791b606082015260800190565b6020808252602c908201527f4552433732313a20617070726f76656420717565727920666f72206e6f6e657860408201526b34b9ba32b73a103a37b5b2b760a11b606082015260800190565b60208082526029908201527f4552433732313a207472616e73666572206f6620746f6b656e2074686174206960408201526839903737ba1037bbb760b91b606082015260800190565b6020808252602f908201527f4552433732314d657461646174613a2055524920717565727920666f72206e6f60408201526e3732bc34b9ba32b73a103a37b5b2b760891b606082015260800190565b60208082526021908201527f4552433732313a20617070726f76616c20746f2063757272656e74206f776e656040820152603960f91b606082015260800190565b60208082526031908201527f4552433732313a207472616e736665722063616c6c6572206973206e6f74206f6040820152701ddb995c881b9bdc88185c1c1c9bdd9959607a1b606082015260800190565b90815260200190565b6000858252608060208301526120ef6080830186611ab1565b82810360408401526121018186611af4565b905082810360608401526121158185611af4565b979650505050505050565b60405181810167ffffffffffffffff811182821017156121425761214261224f565b604052919050565b6000821982111561215d5761215d612223565b500190565b60008261217157612171612239565b500490565b60008282101561218857612188612223565b500390565b60005b838110156121a8578181015183820152602001612190565b838111156109805750506000910152565b6002810460018216806121cd57607f821691505b602082108114156121ee57634e487b7160e01b600052602260045260246000fd5b50919050565b600060001982141561220857612208612223565b5060010190565b60008261221e5761221e612239565b500690565b634e487b7160e01b600052601160045260246000fd5b634e487b7160e01b600052601260045260246000fd5b634e487b7160e01b600052604160045260246000fd5b80151581146113d057600080fd5b6001600160e01b0319811681146113d057600080fdfea2646970667358221220c7a9aa16efefce9c45df77f5e7cbb2dccd4337a56ec3536c6c68e392f424237364736f6c63430008000033",
  "linkReferences": {},
  "deployedLinkReferences": {}
}