{
  "_format": "hh-sol-artifact-1",
  "contractName": "AutographContract",
  "sourceName": "contracts/AutographContract.sol",
  "abi": [
    {
      "anonymous": false,
      "inputs": [
        {
          "indexed": true,
          "internalType": "address",
          "name": "owner",
          "type": "address"
        },
        {
          "indexed": true,
          "internalType": "address",
          "name": "approved",
          "type": "address"
        },
        {
          "indexed": true,
          "internalType": "uint256",
          "name": "tokenId",
          "type": "uint256"
        }
      ],
      "name": "Approval",
      "type": "event"
    },
    {
      "anonymous": false,
      "inputs": [
        {
          "indexed": true,
          "internalType": "address",
          "name": "owner",
          "type": "address"
        },
        {
          "indexed": true,
          "internalType": "address",
          "name": "operator",
          "type": "address"
        },
        {
          "indexed": false,
          "internalType": "bool",
          "name": "approved",
          "type": "bool"
        }
      ],
      "name": "ApprovalForAll",
      "type": "event"
    },
    {
      "anonymous": false,
      "inputs": [
        {
          "indexed": false,
          "internalType": "uint256",
          "name": "id",
          "type": "uint256"
        },
        {
          "indexed": false,
          "internalType": "address[]",
          "name": "creators",
          "type": "address[]"
        },
        {
          "indexed": true,
          "internalType": "address",
          "name": "owner",
          "type": "address"
        },
        {
          "indexed": false,
          "internalType": "string",
          "name": "imageURI",
          "type": "string"
        },
        {
          "indexed": false,
          "internalType": "string",
          "name": "metadataURI",
          "type": "string"
        }
      ],
      "name": "AutographMinted",
      "type": "event"
    },
    {
      "anonymous": false,
      "inputs": [
        {
          "indexed": true,
          "internalType": "address",
          "name": "from",
          "type": "address"
        },
        {
          "indexed": true,
          "internalType": "address",
          "name": "to",
          "type": "address"
        },
        {
          "indexed": true,
          "internalType": "uint256",
          "name": "tokenId",
          "type": "uint256"
        }
      ],
      "name": "Transfer",
      "type": "event"
    },
    {
      "inputs": [
        {
          "internalType": "address",
          "name": "to",
          "type": "address"
        },
        {
          "internalType": "uint256",
          "name": "tokenId",
          "type": "uint256"
        }
      ],
      "name": "approve",
      "outputs": [],
      "stateMutability": "nonpayable",
      "type": "function"
    },
    {
      "inputs": [
        {
          "internalType": "uint256",
          "name": "",
          "type": "uint256"
        }
      ],
      "name": "autographs",
      "outputs": [
        {
          "internalType": "string",
          "name": "imageURI",
          "type": "string"
        }
      ],
      "stateMutability": "view",
      "type": "function"
    },
    {
      "inputs": [
        {
          "internalType": "address",
          "name": "owner",
          "type": "address"
        }
      ],
      "name": "balanceOf",
      "outputs": [
        {
          "internalType": "uint256",
          "name": "",
          "type": "uint256"
        }
      ],
      "stateMutability": "view",
      "type": "function"
    },
    {
      "inputs": [
        {
          "internalType": "uint256",
          "name": "tokenId",
          "type": "uint256"
        }
      ],
      "name": "creatorOf",
      "outputs": [
        {
          "internalType": "address[]",
          "name": "",
          "type": "address[]"
        }
      ],
      "stateMutability": "view",
      "type": "function"
    },
    {
      "inputs": [
        {
          "internalType": "uint256",
          "name": "tokenId",
          "type": "uint256"
        }
      ],
      "name": "getApproved",
      "outputs": [
        {
          "internalType": "address",
          "name": "",
          "type": "address"
        }
      ],
      "stateMutability": "view",
      "type": "function"
    },
    {
      "inputs": [
        {
          "internalType": "uint256",
          "name": "tokenId",
          "type": "uint256"
        }
      ],
      "name": "imageURI",
      "outputs": [
        {
          "internalType": "string",
          "name": "",
          "type": "string"
        }
      ],
      "stateMutability": "view",
      "type": "function"
    },
    {
      "inputs": [],
      "name": "initialize",
      "outputs": [],
      "stateMutability": "nonpayable",
      "type": "function"
    },
    {
      "inputs": [
        {
          "internalType": "address",
          "name": "owner",
          "type": "address"
        },
        {
          "internalType": "address",
          "name": "operator",
          "type": "address"
        }
      ],
      "name": "isApprovedForAll",
      "outputs": [
        {
          "internalType": "bool",
          "name": "",
          "type": "bool"
        }
      ],
      "stateMutability": "view",
      "type": "function"
    },
    {
      "inputs": [
        {
          "internalType": "address",
          "name": "to",
          "type": "address"
        },
        {
          "internalType": "address[]",
          "name": "signers",
          "type": "address[]"
        },
        {
          "internalType": "string",
          "name": "imgURI",
          "type": "string"
        },
        {
          "internalType": "string",
          "name": "metadataURI",
          "type": "string"
        }
      ],
      "name": "mint",
      "outputs": [
        {
          "internalType": "uint256",
          "name": "",
          "type": "uint256"
        }
      ],
      "stateMutability": "nonpayable",
      "type": "function"
    },
    {
      "inputs": [],
      "name": "name",
      "outputs": [
        {
          "internalType": "string",
          "name": "",
          "type": "string"
        }
      ],
      "stateMutability": "view",
      "type": "function"
    },
    {
      "inputs": [
        {
          "internalType": "uint256",
          "name": "tokenId",
          "type": "uint256"
        }
      ],
      "name": "ownerOf",
      "outputs": [
        {
          "internalType": "address",
          "name": "",
          "type": "address"
        }
      ],
      "stateMutability": "view",
      "type": "function"
    },
    {
      "inputs": [
        {
          "internalType": "address",
          "name": "from",
          "type": "address"
        },
        {
          "internalType": "address",
          "name": "to",
          "type": "address"
        },
        {
          "internalType": "uint256",
          "name": "tokenId",
          "type": "uint256"
        }
      ],
      "name": "safeTransferFrom",
      "outputs": [],
      "stateMutability": "nonpayable",
      "type": "function"
    },
    {
      "inputs": [
        {
          "internalType": "address",
          "name": "from",
          "type": "address"
        },
        {
          "internalType": "address",
          "name": "to",
          "type": "address"
        },
        {
          "internalType": "uint256",
          "name": "tokenId",
          "type": "uint256"
        },
        {
          "internalType": "bytes",
          "name": "_data",
          "type": "bytes"
        }
      ],
      "name": "safeTransferFrom",
      "outputs": [],
      "stateMutability": "nonpayable",
      "type": "function"
    },
    {
      "inputs": [
        {
          "internalType": "address",
          "name": "operator",
          "type": "address"
        },
        {
          "internalType": "bool",
          "name": "approved",
          "type": "bool"
        }
      ],
      "name": "setApprovalForAll",
      "outputs": [],
      "stateMutability": "nonpayable",
      "type": "function"
    },
    {
      "inputs": [
        {
          "internalType": "bytes4",
          "name": "interfaceId",
          "type": "bytes4"
        }
      ],
      "name": "supportsInterface",
      "outputs": [
        {
          "internalType": "bool",
          "name": "",
          "type": "bool"
        }
      ],
      "stateMutability": "view",
      "type": "function"
    },
    {
      "inputs": [],
      "name": "symbol",
      "outputs": [
        {
          "internalType": "string",
          "name": "",
          "type": "string"
        }
      ],
      "stateMutability": "view",
      "type": "function"
    },
    {
      "inputs": [
        {
          "internalType": "uint256",
          "name": "tokenId",
          "type": "uint256"
        }
      ],
      "name": "tokenURI",
      "outputs": [
        {
          "internalType": "string",
          "name": "",
          "type": "string"
        }
      ],
      "stateMutability": "view",
      "type": "function"
    },
    {
      "inputs": [],
      "name": "totalSupply",
      "outputs": [
        {
          "internalType": "uint256",
          "name": "",
          "type": "uint256"
        }
      ],
      "stateMutability": "view",
      "type": "function"
    },
    {
      "inputs": [
        {
          "internalType": "address",
          "name": "from",
          "type": "address"
        },
        {
          "internalType": "address",
          "name": "to",
          "type": "address"
        },
        {
          "internalType": "uint256",
          "name": "tokenId",
          "type": "uint256"
        }
      ],
      "name": "transferFrom",
      "outputs": [],
      "stateMutability": "nonpayable",
      "type": "function"
    }
  ],
  "bytecode": "0x608060405234801561001057600080fd5b50613777806100206000396000f3fe608060405234801561001057600080fd5b50600436106101215760003560e01c8063589a1743116100ad57806395d89b411161007157806395d89b4114610340578063a22cb4651461035e578063b88d4fde1461037a578063c87b56dd14610396578063e985e9c5146103c657610121565b8063589a1743146102765780636352211e146102a657806370a08231146102d65780638129fc1c146103065780638f742d161461031057610121565b806318160ddd116100f457806318160ddd146101c05780631ffbb6aa146101de57806323b872dd1461020e5780632fb3f57d1461022a57806342842e0e1461025a57610121565b806301ffc9a71461012657806306fdde0314610156578063081812fc14610174578063095ea7b3146101a4575b600080fd5b610140600480360381019061013b919061271f565b6103f6565b60405161014d9190612ff0565b60405180910390f35b61015e6104d8565b60405161016b919061300b565b60405180910390f35b61018e60048036038101906101899190612771565b61056a565b60405161019b9190612f67565b60405180910390f35b6101be60048036038101906101b991906126e3565b6105ef565b005b6101c8610707565b6040516101d5919061324d565b60405180910390f35b6101f860048036038101906101f391906125fc565b610714565b604051610205919061324d565b60405180910390f35b61022860048036038101906102239190612532565b61080f565b005b610244600480360381019061023f9190612771565b61086f565b604051610251919061300b565b60405180910390f35b610274600480360381019061026f9190612532565b610925565b005b610290600480360381019061028b9190612771565b610945565b60405161029d9190612fce565b60405180910390f35b6102c060048036038101906102bb9190612771565b610a1e565b6040516102cd9190612f67565b60405180910390f35b6102f060048036038101906102eb91906124cd565b610ad0565b6040516102fd919061324d565b60405180910390f35b61030e610b88565b005b61032a60048036038101906103259190612771565b610cd5565b604051610337919061300b565b60405180910390f35b610348610db2565b604051610355919061300b565b60405180910390f35b610378600480360381019061037391906126a7565b610e44565b005b610394600480360381019061038f9190612581565b610fc5565b005b6103b060048036038101906103ab9190612771565b611027565b6040516103bd919061300b565b60405180910390f35b6103e060048036038101906103db91906124f6565b611039565b6040516103ed9190612ff0565b60405180910390f35b60007f80ac58cd000000000000000000000000000000000000000000000000000000007bffffffffffffffffffffffffffffffffffffffffffffffffffffffff1916827bffffffffffffffffffffffffffffffffffffffffffffffffffffffff191614806104c157507f5b5e139f000000000000000000000000000000000000000000000000000000007bffffffffffffffffffffffffffffffffffffffffffffffffffffffff1916827bffffffffffffffffffffffffffffffffffffffffffffffffffffffff1916145b806104d157506104d0826110cd565b5b9050919050565b6060606580546104e79061356c565b80601f01602080910402602001604051908101604052809291908181526020018280546105139061356c565b80156105605780601f1061053557610100808354040283529160200191610560565b820191906000526020600020905b81548152906001019060200180831161054357829003601f168201915b5050505050905090565b600061057582611137565b6105b4576040517f08c379a00000000000000000000000000000000000000000000000000000000081526004016105ab906131ad565b60405180910390fd5b6069600083815260200190815260200160002060009054906101000a900473ffffffffffffffffffffffffffffffffffffffff169050919050565b60006105fa82610a1e565b90508073ffffffffffffffffffffffffffffffffffffffff168373ffffffffffffffffffffffffffffffffffffffff16141561066b576040517f08c379a00000000000000000000000000000000000000000000000000000000081526004016106629061320d565b60405180910390fd5b8073ffffffffffffffffffffffffffffffffffffffff1661068a6111a3565b73ffffffffffffffffffffffffffffffffffffffff1614806106b957506106b8816106b36111a3565b611039565b5b6106f8576040517f08c379a00000000000000000000000000000000000000000000000000000000081526004016106ef906130cd565b60405180910390fd5b61070283836111ab565b505050565b600060c980549050905090565b60008060c980549050905060c96040518060400160405280878152602001868152509080600181540180825580915050600190039060005260206000209060020201600090919091909150600082015181600001908051906020019061077b9291906121d1565b50602082015181600101908051906020019061079892919061225b565b5050506107a58682611264565b6107af8184611282565b8573ffffffffffffffffffffffffffffffffffffffff167fa6c8238cbed10fcf0096924959a51559d6442e97d46fbf32a156dd2357b2328b828787876040516107fb9493929190613268565b60405180910390a280915050949350505050565b61082061081a6111a3565b826112f6565b61085f576040517f08c379a00000000000000000000000000000000000000000000000000000000081526004016108569061322d565b60405180910390fd5b61086a8383836113d4565b505050565b60c9818154811061087f57600080fd5b90600052602060002090600202016000915090508060010180546108a29061356c565b80601f01602080910402602001604051908101604052809291908181526020018280546108ce9061356c565b801561091b5780601f106108f05761010080835404028352916020019161091b565b820191906000526020600020905b8154815290600101906020018083116108fe57829003601f168201915b5050505050905081565b61094083838360405180602001604052806000815250610fc5565b505050565b606060c98281548110610981577f4e487b7100000000000000000000000000000000000000000000000000000000600052603260045260246000fd5b9060005260206000209060020201600001805480602002602001604051908101604052809291908181526020018280548015610a1257602002820191906000526020600020905b8160009054906101000a900473ffffffffffffffffffffffffffffffffffffffff1673ffffffffffffffffffffffffffffffffffffffff16815260200190600101908083116109c8575b50505050509050919050565b6000806067600084815260200190815260200160002060009054906101000a900473ffffffffffffffffffffffffffffffffffffffff169050600073ffffffffffffffffffffffffffffffffffffffff168173ffffffffffffffffffffffffffffffffffffffff161415610ac7576040517f08c379a0000000000000000000000000000000000000000000000000000000008152600401610abe9061310d565b60405180910390fd5b80915050919050565b60008073ffffffffffffffffffffffffffffffffffffffff168273ffffffffffffffffffffffffffffffffffffffff161415610b41576040517f08c379a0000000000000000000000000000000000000000000000000000000008152600401610b38906130ed565b60405180910390fd5b606860008373ffffffffffffffffffffffffffffffffffffffff1673ffffffffffffffffffffffffffffffffffffffff168152602001908152602001600020549050919050565b600060019054906101000a900460ff1680610bae575060008054906101000a900460ff16155b610bed576040517f08c379a0000000000000000000000000000000000000000000000000000000008152600401610be49061314d565b60405180910390fd5b60008060019054906101000a900460ff161590508015610c3d576001600060016101000a81548160ff02191690831515021790555060016000806101000a81548160ff0219169083151502179055505b610cb16040518060400160405280601781526020017f48617368696e6b204175746f677261706820546f6b656e0000000000000000008152506040518060400160405280600381526020017f4752460000000000000000000000000000000000000000000000000000000000815250611630565b8015610cd25760008060016101000a81548160ff0219169083151502179055505b50565b606060c98281548110610d11577f4e487b7100000000000000000000000000000000000000000000000000000000600052603260045260246000fd5b90600052602060002090600202016001018054610d2d9061356c565b80601f0160208091040260200160405190810160405280929190818152602001828054610d599061356c565b8015610da65780601f10610d7b57610100808354040283529160200191610da6565b820191906000526020600020905b815481529060010190602001808311610d8957829003601f168201915b50505050509050919050565b606060668054610dc19061356c565b80601f0160208091040260200160405190810160405280929190818152602001828054610ded9061356c565b8015610e3a5780601f10610e0f57610100808354040283529160200191610e3a565b820191906000526020600020905b815481529060010190602001808311610e1d57829003601f168201915b5050505050905090565b610e4c6111a3565b73ffffffffffffffffffffffffffffffffffffffff168273ffffffffffffffffffffffffffffffffffffffff161415610eba576040517f08c379a0000000000000000000000000000000000000000000000000000000008152600401610eb19061308d565b60405180910390fd5b80606a6000610ec76111a3565b73ffffffffffffffffffffffffffffffffffffffff1673ffffffffffffffffffffffffffffffffffffffff16815260200190815260200160002060008473ffffffffffffffffffffffffffffffffffffffff1673ffffffffffffffffffffffffffffffffffffffff16815260200190815260200160002060006101000a81548160ff0219169083151502179055508173ffffffffffffffffffffffffffffffffffffffff16610f746111a3565b73ffffffffffffffffffffffffffffffffffffffff167f17307eab39ab6107e8899845ad3d59bd9653f200f220920489ca2b5937696c3183604051610fb99190612ff0565b60405180910390a35050565b610fd6610fd06111a3565b836112f6565b611015576040517f08c379a000000000000000000000000000000000000000000000000000000000815260040161100c9061322d565b60405180910390fd5b61102184848484611725565b50505050565b606061103282611781565b9050919050565b6000606a60008473ffffffffffffffffffffffffffffffffffffffff1673ffffffffffffffffffffffffffffffffffffffff16815260200190815260200160002060008373ffffffffffffffffffffffffffffffffffffffff1673ffffffffffffffffffffffffffffffffffffffff16815260200190815260200160002060009054906101000a900460ff16905092915050565b60007f01ffc9a7000000000000000000000000000000000000000000000000000000007bffffffffffffffffffffffffffffffffffffffffffffffffffffffff1916827bffffffffffffffffffffffffffffffffffffffffffffffffffffffff1916149050919050565b60008073ffffffffffffffffffffffffffffffffffffffff166067600084815260200190815260200160002060009054906101000a900473ffffffffffffffffffffffffffffffffffffffff1673ffffffffffffffffffffffffffffffffffffffff1614159050919050565b600033905090565b816069600083815260200190815260200160002060006101000a81548173ffffffffffffffffffffffffffffffffffffffff021916908373ffffffffffffffffffffffffffffffffffffffff160217905550808273ffffffffffffffffffffffffffffffffffffffff1661121e83610a1e565b73ffffffffffffffffffffffffffffffffffffffff167f8c5be1e5ebec7d5bd14f71427d1e84f3dd0314c0f7b2291e5b200ac8c7c3b92560405160405180910390a45050565b61127e8282604051806020016040528060008152506118d3565b5050565b61128b82611137565b6112ca576040517f08c379a00000000000000000000000000000000000000000000000000000000081526004016112c19061312d565b60405180910390fd5b806097600084815260200190815260200160002090805190602001906112f192919061225b565b505050565b600061130182611137565b611340576040517f08c379a0000000000000000000000000000000000000000000000000000000008152600401611337906130ad565b60405180910390fd5b600061134b83610a1e565b90508073ffffffffffffffffffffffffffffffffffffffff168473ffffffffffffffffffffffffffffffffffffffff1614806113ba57508373ffffffffffffffffffffffffffffffffffffffff166113a28461056a565b73ffffffffffffffffffffffffffffffffffffffff16145b806113cb57506113ca8185611039565b5b91505092915050565b8273ffffffffffffffffffffffffffffffffffffffff166113f482610a1e565b73ffffffffffffffffffffffffffffffffffffffff161461144a576040517f08c379a0000000000000000000000000000000000000000000000000000000008152600401611441906131cd565b60405180910390fd5b600073ffffffffffffffffffffffffffffffffffffffff168273ffffffffffffffffffffffffffffffffffffffff1614156114ba576040517f08c379a00000000000000000000000000000000000000000000000000000000081526004016114b19061306d565b60405180910390fd5b6114c583838361192e565b6114d06000826111ab565b6001606860008573ffffffffffffffffffffffffffffffffffffffff1673ffffffffffffffffffffffffffffffffffffffff16815260200190815260200160002060008282546115209190613482565b925050819055506001606860008473ffffffffffffffffffffffffffffffffffffffff1673ffffffffffffffffffffffffffffffffffffffff168152602001908152602001600020600082825461157791906133fb565b92505081905550816067600083815260200190815260200160002060006101000a81548173ffffffffffffffffffffffffffffffffffffffff021916908373ffffffffffffffffffffffffffffffffffffffff160217905550808273ffffffffffffffffffffffffffffffffffffffff168473ffffffffffffffffffffffffffffffffffffffff167fddf252ad1be2c89b69c2b068fc378daa952ba7f163c4a11628f55a4df523b3ef60405160405180910390a4505050565b600060019054906101000a900460ff1680611656575060008054906101000a900460ff16155b611695576040517f08c379a000000000000000000000000000000000000000000000000000000000815260040161168c9061314d565b60405180910390fd5b60008060019054906101000a900460ff1615905080156116e5576001600060016101000a81548160ff02191690831515021790555060016000806101000a81548160ff0219169083151502179055505b6116ed611933565b6116f5611a0c565b6116ff8383611ae5565b80156117205760008060016101000a81548160ff0219169083151502179055505b505050565b6117308484846113d4565b61173c84848484611bee565b61177b576040517f08c379a00000000000000000000000000000000000000000000000000000000081526004016117729061302d565b60405180910390fd5b50505050565b606061178c82611137565b6117cb576040517f08c379a00000000000000000000000000000000000000000000000000000000081526004016117c29061318d565b60405180910390fd5b60006097600084815260200190815260200160002080546117eb9061356c565b80601f01602080910402602001604051908101604052809291908181526020018280546118179061356c565b80156118645780601f1061183957610100808354040283529160200191611864565b820191906000526020600020905b81548152906001019060200180831161184757829003601f168201915b505050505090506000611875611d85565b905060008151141561188b5781925050506118ce565b6000825111156118c05780826040516020016118a8929190612f43565b604051602081830303815290604052925050506118ce565b6118c984611d9c565b925050505b919050565b6118dd8383611e43565b6118ea6000848484611bee565b611929576040517f08c379a00000000000000000000000000000000000000000000000000000000081526004016119209061302d565b60405180910390fd5b505050565b505050565b600060019054906101000a900460ff1680611959575060008054906101000a900460ff16155b611998576040517f08c379a000000000000000000000000000000000000000000000000000000000815260040161198f9061314d565b60405180910390fd5b60008060019054906101000a900460ff1615905080156119e8576001600060016101000a81548160ff02191690831515021790555060016000806101000a81548160ff0219169083151502179055505b8015611a095760008060016101000a81548160ff0219169083151502179055505b50565b600060019054906101000a900460ff1680611a32575060008054906101000a900460ff16155b611a71576040517f08c379a0000000000000000000000000000000000000000000000000000000008152600401611a689061314d565b60405180910390fd5b60008060019054906101000a900460ff161590508015611ac1576001600060016101000a81548160ff02191690831515021790555060016000806101000a81548160ff0219169083151502179055505b8015611ae25760008060016101000a81548160ff0219169083151502179055505b50565b600060019054906101000a900460ff1680611b0b575060008054906101000a900460ff16155b611b4a576040517f08c379a0000000000000000000000000000000000000000000000000000000008152600401611b419061314d565b60405180910390fd5b60008060019054906101000a900460ff161590508015611b9a576001600060016101000a81548160ff02191690831515021790555060016000806101000a81548160ff0219169083151502179055505b8260659080519060200190611bb092919061225b565b508160669080519060200190611bc792919061225b565b508015611be95760008060016101000a81548160ff0219169083151502179055505b505050565b6000611c0f8473ffffffffffffffffffffffffffffffffffffffff16612011565b15611d78578373ffffffffffffffffffffffffffffffffffffffff1663150b7a02611c386111a3565b8786866040518563ffffffff1660e01b8152600401611c5a9493929190612f82565b602060405180830381600087803b158015611c7457600080fd5b505af1925050508015611ca557506040513d601f19601f82011682018060405250810190611ca29190612748565b60015b611d28573d8060008114611cd5576040519150601f19603f3d011682016040523d82523d6000602084013e611cda565b606091505b50600081511415611d20576040517f08c379a0000000000000000000000000000000000000000000000000000000008152600401611d179061302d565b60405180910390fd5b805181602001fd5b63150b7a0260e01b7bffffffffffffffffffffffffffffffffffffffffffffffffffffffff1916817bffffffffffffffffffffffffffffffffffffffffffffffffffffffff191614915050611d7d565b600190505b949350505050565b606060405180602001604052806000815250905090565b6060611da782611137565b611de6576040517f08c379a0000000000000000000000000000000000000000000000000000000008152600401611ddd906131ed565b60405180910390fd5b6000611df0611d85565b90506000815111611e105760405180602001604052806000815250611e3b565b80611e1a84612024565b604051602001611e2b929190612f43565b6040516020818303038152906040525b915050919050565b600073ffffffffffffffffffffffffffffffffffffffff168273ffffffffffffffffffffffffffffffffffffffff161415611eb3576040517f08c379a0000000000000000000000000000000000000000000000000000000008152600401611eaa9061316d565b60405180910390fd5b611ebc81611137565b15611efc576040517f08c379a0000000000000000000000000000000000000000000000000000000008152600401611ef39061304d565b60405180910390fd5b611f086000838361192e565b6001606860008473ffffffffffffffffffffffffffffffffffffffff1673ffffffffffffffffffffffffffffffffffffffff1681526020019081526020016000206000828254611f5891906133fb565b92505081905550816067600083815260200190815260200160002060006101000a81548173ffffffffffffffffffffffffffffffffffffffff021916908373ffffffffffffffffffffffffffffffffffffffff160217905550808273ffffffffffffffffffffffffffffffffffffffff16600073ffffffffffffffffffffffffffffffffffffffff167fddf252ad1be2c89b69c2b068fc378daa952ba7f163c4a11628f55a4df523b3ef60405160405180910390a45050565b600080823b905060008111915050919050565b6060600082141561206c576040518060400160405280600181526020017f300000000000000000000000000000000000000000000000000000000000000081525090506121cc565b600082905060005b6000821461209e5780806120879061359e565b915050600a826120979190613451565b9150612074565b60008167ffffffffffffffff8111156120e0577f4e487b7100000000000000000000000000000000000000000000000000000000600052604160045260246000fd5b6040519080825280601f01601f1916602001820160405280156121125781602001600182028036833780820191505090505b5090505b600085146121c55760018261212b9190613482565b9150600a8561213a91906135e7565b603061214691906133fb565b60f81b818381518110612182577f4e487b7100000000000000000000000000000000000000000000000000000000600052603260045260246000fd5b60200101907effffffffffffffffffffffffffffffffffffffffffffffffffffffffffffff1916908160001a905350600a856121be9190613451565b9450612116565b8093505050505b919050565b82805482825590600052602060002090810192821561224a579160200282015b828111156122495782518260006101000a81548173ffffffffffffffffffffffffffffffffffffffff021916908373ffffffffffffffffffffffffffffffffffffffff160217905550916020019190600101906121f1565b5b50905061225791906122e1565b5090565b8280546122679061356c565b90600052602060002090601f01602090048101928261228957600085556122d0565b82601f106122a257805160ff19168380011785556122d0565b828001600101855582156122d0579182015b828111156122cf5782518255916020019190600101906122b4565b5b5090506122dd91906122e1565b5090565b5b808211156122fa5760008160009055506001016122e2565b5090565b600061231161230c846132f3565b6132c2565b9050808382526020820190508285602086028201111561233057600080fd5b60005b85811015612360578161234688826123e6565b845260208401935060208301925050600181019050612333565b5050509392505050565b600061237d6123788461331f565b6132c2565b90508281526020810184848401111561239557600080fd5b6123a084828561352a565b509392505050565b60006123bb6123b68461334f565b6132c2565b9050828152602081018484840111156123d357600080fd5b6123de84828561352a565b509392505050565b6000813590506123f5816136e5565b92915050565b600082601f83011261240c57600080fd5b813561241c8482602086016122fe565b91505092915050565b600081359050612434816136fc565b92915050565b60008135905061244981613713565b92915050565b60008151905061245e81613713565b92915050565b600082601f83011261247557600080fd5b813561248584826020860161236a565b91505092915050565b600082601f83011261249f57600080fd5b81356124af8482602086016123a8565b91505092915050565b6000813590506124c78161372a565b92915050565b6000602082840312156124df57600080fd5b60006124ed848285016123e6565b91505092915050565b6000806040838503121561250957600080fd5b6000612517858286016123e6565b9250506020612528858286016123e6565b9150509250929050565b60008060006060848603121561254757600080fd5b6000612555868287016123e6565b9350506020612566868287016123e6565b9250506040612577868287016124b8565b9150509250925092565b6000806000806080858703121561259757600080fd5b60006125a5878288016123e6565b94505060206125b6878288016123e6565b93505060406125c7878288016124b8565b925050606085013567ffffffffffffffff8111156125e457600080fd5b6125f087828801612464565b91505092959194509250565b6000806000806080858703121561261257600080fd5b6000612620878288016123e6565b945050602085013567ffffffffffffffff81111561263d57600080fd5b612649878288016123fb565b935050604085013567ffffffffffffffff81111561266657600080fd5b6126728782880161248e565b925050606085013567ffffffffffffffff81111561268f57600080fd5b61269b8782880161248e565b91505092959194509250565b600080604083850312156126ba57600080fd5b60006126c8858286016123e6565b92505060206126d985828601612425565b9150509250929050565b600080604083850312156126f657600080fd5b6000612704858286016123e6565b9250506020612715858286016124b8565b9150509250929050565b60006020828403121561273157600080fd5b600061273f8482850161243a565b91505092915050565b60006020828403121561275a57600080fd5b60006127688482850161244f565b91505092915050565b60006020828403121561278357600080fd5b6000612791848285016124b8565b91505092915050565b60006127a683836127b2565b60208301905092915050565b6127bb816134b6565b82525050565b6127ca816134b6565b82525050565b60006127db8261338f565b6127e581856133bd565b93506127f08361337f565b8060005b83811015612821578151612808888261279a565b9750612813836133b0565b9250506001810190506127f4565b5085935050505092915050565b612837816134c8565b82525050565b60006128488261339a565b61285281856133ce565b9350612862818560208601613539565b61286b816136d4565b840191505092915050565b6000612881826133a5565b61288b81856133df565b935061289b818560208601613539565b6128a4816136d4565b840191505092915050565b60006128ba826133a5565b6128c481856133f0565b93506128d4818560208601613539565b80840191505092915050565b60006128ed6032836133df565b91507f4552433732313a207472616e7366657220746f206e6f6e20455243373231526560008301527f63656976657220696d706c656d656e74657200000000000000000000000000006020830152604082019050919050565b6000612953601c836133df565b91507f4552433732313a20746f6b656e20616c7265616479206d696e746564000000006000830152602082019050919050565b60006129936024836133df565b91507f4552433732313a207472616e7366657220746f20746865207a65726f2061646460008301527f72657373000000000000000000000000000000000000000000000000000000006020830152604082019050919050565b60006129f96019836133df565b91507f4552433732313a20617070726f766520746f2063616c6c6572000000000000006000830152602082019050919050565b6000612a39602c836133df565b91507f4552433732313a206f70657261746f7220717565727920666f72206e6f6e657860008301527f697374656e7420746f6b656e00000000000000000000000000000000000000006020830152604082019050919050565b6000612a9f6038836133df565b91507f4552433732313a20617070726f76652063616c6c6572206973206e6f74206f7760008301527f6e6572206e6f7220617070726f76656420666f7220616c6c00000000000000006020830152604082019050919050565b6000612b05602a836133df565b91507f4552433732313a2062616c616e636520717565727920666f7220746865207a6560008301527f726f2061646472657373000000000000000000000000000000000000000000006020830152604082019050919050565b6000612b6b6029836133df565b91507f4552433732313a206f776e657220717565727920666f72206e6f6e657869737460008301527f656e7420746f6b656e00000000000000000000000000000000000000000000006020830152604082019050919050565b6000612bd1602e836133df565b91507f45524337323155524953746f726167653a2055524920736574206f66206e6f6e60008301527f6578697374656e7420746f6b656e0000000000000000000000000000000000006020830152604082019050919050565b6000612c37602e836133df565b91507f496e697469616c697a61626c653a20636f6e747261637420697320616c72656160008301527f647920696e697469616c697a65640000000000000000000000000000000000006020830152604082019050919050565b6000612c9d6020836133df565b91507f4552433732313a206d696e7420746f20746865207a65726f20616464726573736000830152602082019050919050565b6000612cdd6031836133df565b91507f45524337323155524953746f726167653a2055524920717565727920666f722060008301527f6e6f6e6578697374656e7420746f6b656e0000000000000000000000000000006020830152604082019050919050565b6000612d43602c836133df565b91507f4552433732313a20617070726f76656420717565727920666f72206e6f6e657860008301527f697374656e7420746f6b656e00000000000000000000000000000000000000006020830152604082019050919050565b6000612da96029836133df565b91507f4552433732313a207472616e73666572206f6620746f6b656e2074686174206960008301527f73206e6f74206f776e00000000000000000000000000000000000000000000006020830152604082019050919050565b6000612e0f602f836133df565b91507f4552433732314d657461646174613a2055524920717565727920666f72206e6f60008301527f6e6578697374656e7420746f6b656e00000000000000000000000000000000006020830152604082019050919050565b6000612e756021836133df565b91507f4552433732313a20617070726f76616c20746f2063757272656e74206f776e6560008301527f72000000000000000000000000000000000000000000000000000000000000006020830152604082019050919050565b6000612edb6031836133df565b91507f4552433732313a207472616e736665722063616c6c6572206973206e6f74206f60008301527f776e6572206e6f7220617070726f7665640000000000000000000000000000006020830152604082019050919050565b612f3d81613520565b82525050565b6000612f4f82856128af565b9150612f5b82846128af565b91508190509392505050565b6000602082019050612f7c60008301846127c1565b92915050565b6000608082019050612f9760008301876127c1565b612fa460208301866127c1565b612fb16040830185612f34565b8181036060830152612fc3818461283d565b905095945050505050565b60006020820190508181036000830152612fe881846127d0565b905092915050565b6000602082019050613005600083018461282e565b92915050565b600060208201905081810360008301526130258184612876565b905092915050565b60006020820190508181036000830152613046816128e0565b9050919050565b6000602082019050818103600083015261306681612946565b9050919050565b6000602082019050818103600083015261308681612986565b9050919050565b600060208201905081810360008301526130a6816129ec565b9050919050565b600060208201905081810360008301526130c681612a2c565b9050919050565b600060208201905081810360008301526130e681612a92565b9050919050565b6000602082019050818103600083015261310681612af8565b9050919050565b6000602082019050818103600083015261312681612b5e565b9050919050565b6000602082019050818103600083015261314681612bc4565b9050919050565b6000602082019050818103600083015261316681612c2a565b9050919050565b6000602082019050818103600083015261318681612c90565b9050919050565b600060208201905081810360008301526131a681612cd0565b9050919050565b600060208201905081810360008301526131c681612d36565b9050919050565b600060208201905081810360008301526131e681612d9c565b9050919050565b6000602082019050818103600083015261320681612e02565b9050919050565b6000602082019050818103600083015261322681612e68565b9050919050565b6000602082019050818103600083015261324681612ece565b9050919050565b60006020820190506132626000830184612f34565b92915050565b600060808201905061327d6000830187612f34565b818103602083015261328f81866127d0565b905081810360408301526132a38185612876565b905081810360608301526132b78184612876565b905095945050505050565b6000604051905081810181811067ffffffffffffffff821117156132e9576132e86136a5565b5b8060405250919050565b600067ffffffffffffffff82111561330e5761330d6136a5565b5b602082029050602081019050919050565b600067ffffffffffffffff82111561333a576133396136a5565b5b601f19601f8301169050602081019050919050565b600067ffffffffffffffff82111561336a576133696136a5565b5b601f19601f8301169050602081019050919050565b6000819050602082019050919050565b600081519050919050565b600081519050919050565b600081519050919050565b6000602082019050919050565b600082825260208201905092915050565b600082825260208201905092915050565b600082825260208201905092915050565b600081905092915050565b600061340682613520565b915061341183613520565b9250827fffffffffffffffffffffffffffffffffffffffffffffffffffffffffffffffff0382111561344657613445613618565b5b828201905092915050565b600061345c82613520565b915061346783613520565b92508261347757613476613647565b5b828204905092915050565b600061348d82613520565b915061349883613520565b9250828210156134ab576134aa613618565b5b828203905092915050565b60006134c182613500565b9050919050565b60008115159050919050565b60007fffffffff0000000000000000000000000000000000000000000000000000000082169050919050565b600073ffffffffffffffffffffffffffffffffffffffff82169050919050565b6000819050919050565b82818337600083830152505050565b60005b8381101561355757808201518184015260208101905061353c565b83811115613566576000848401525b50505050565b6000600282049050600182168061358457607f821691505b6020821081141561359857613597613676565b5b50919050565b60006135a982613520565b91507fffffffffffffffffffffffffffffffffffffffffffffffffffffffffffffffff8214156135dc576135db613618565b5b600182019050919050565b60006135f282613520565b91506135fd83613520565b92508261360d5761360c613647565b5b828206905092915050565b7f4e487b7100000000000000000000000000000000000000000000000000000000600052601160045260246000fd5b7f4e487b7100000000000000000000000000000000000000000000000000000000600052601260045260246000fd5b7f4e487b7100000000000000000000000000000000000000000000000000000000600052602260045260246000fd5b7f4e487b7100000000000000000000000000000000000000000000000000000000600052604160045260246000fd5b6000601f19601f8301169050919050565b6136ee816134b6565b81146136f957600080fd5b50565b613705816134c8565b811461371057600080fd5b50565b61371c816134d4565b811461372757600080fd5b50565b61373381613520565b811461373e57600080fd5b5056fea2646970667358221220ccf586bce1e773bc6760dc15f9cadf6e3ff4d42ccdc4d1fc0c1192c4bd241a5464736f6c63430008000033",
  "linkReferences": {},
  "deployedLinkReferences": {}
}