{
  "_format": "hh-sol-artifact-1",
  "contractName": "RequestContract",
  "sourceName": "contracts/RequestContract.sol",
  "abi": [
    {
      "anonymous": false,
      "inputs": [
        {
          "indexed": false,
          "internalType": "uint256",
          "name": "feePercent",
          "type": "uint256"
        }
      ],
      "name": "FeePercentChanged",
      "type": "event"
    },
    {
      "anonymous": false,
      "inputs": [
        {
          "indexed": true,
          "internalType": "address",
          "name": "previousOwner",
          "type": "address"
        },
        {
          "indexed": true,
          "internalType": "address",
          "name": "newOwner",
          "type": "address"
        }
      ],
      "name": "OwnershipTransferred",
      "type": "event"
    },
    {
      "anonymous": false,
      "inputs": [
        {
          "indexed": false,
          "internalType": "uint256",
          "name": "id",
          "type": "uint256"
        },
        {
          "indexed": true,
          "internalType": "address",
          "name": "from",
          "type": "address"
        },
        {
          "indexed": false,
          "internalType": "address[]",
          "name": "to",
          "type": "address[]"
        },
        {
          "indexed": false,
          "internalType": "uint256",
          "name": "price",
          "type": "uint256"
        },
        {
          "indexed": false,
          "internalType": "uint256",
          "name": "responseTime",
          "type": "uint256"
        },
        {
          "indexed": false,
          "internalType": "uint256",
          "name": "created",
          "type": "uint256"
        }
      ],
      "name": "RequestCreated",
      "type": "event"
    },
    {
      "anonymous": false,
      "inputs": [
        {
          "indexed": false,
          "internalType": "uint256",
          "name": "id",
          "type": "uint256"
        },
        {
          "indexed": true,
          "internalType": "address",
          "name": "from",
          "type": "address"
        },
        {
          "indexed": false,
          "internalType": "uint256",
          "name": "price",
          "type": "uint256"
        },
        {
          "indexed": false,
          "internalType": "uint256",
          "name": "responseTime",
          "type": "uint256"
        },
        {
          "indexed": false,
          "internalType": "uint256",
          "name": "created",
          "type": "uint256"
        }
      ],
      "name": "RequestDeleted",
      "type": "event"
    },
    {
      "anonymous": false,
      "inputs": [
        {
          "indexed": false,
          "internalType": "uint256",
          "name": "id",
          "type": "uint256"
        },
        {
          "indexed": true,
          "internalType": "address",
          "name": "from",
          "type": "address"
        },
        {
          "indexed": true,
          "internalType": "address",
          "name": "to",
          "type": "address"
        },
        {
          "indexed": false,
          "internalType": "uint256",
          "name": "price",
          "type": "uint256"
        },
        {
          "indexed": false,
          "internalType": "uint256",
          "name": "responseTime",
          "type": "uint256"
        },
        {
          "indexed": false,
          "internalType": "uint256",
          "name": "created",
          "type": "uint256"
        },
        {
          "indexed": false,
          "internalType": "string",
          "name": "imageURI",
          "type": "string"
        },
        {
          "indexed": false,
          "internalType": "string",
          "name": "metadataURI",
          "type": "string"
        }
      ],
      "name": "RequestMinted",
      "type": "event"
    },
    {
      "anonymous": false,
      "inputs": [
        {
          "indexed": true,
          "internalType": "address",
          "name": "addr",
          "type": "address"
        }
      ],
      "name": "WalletChanged",
      "type": "event"
    },
    {
      "inputs": [
        {
          "internalType": "address[]",
          "name": "signers",
          "type": "address[]"
        },
        {
          "internalType": "uint256",
          "name": "responseTime",
          "type": "uint256"
        }
      ],
      "name": "createRequest",
      "outputs": [],
      "stateMutability": "payable",
      "type": "function"
    },
    {
      "inputs": [
        {
          "internalType": "uint256",
          "name": "id",
          "type": "uint256"
        }
      ],
      "name": "deleteRequest",
      "outputs": [],
      "stateMutability": "nonpayable",
      "type": "function"
    },
    {
      "inputs": [],
      "name": "feePercent",
      "outputs": [
        {
          "internalType": "uint256",
          "name": "",
          "type": "uint256"
        }
      ],
      "stateMutability": "view",
      "type": "function"
    },
    {
      "inputs": [],
      "name": "getBalance",
      "outputs": [
        {
          "internalType": "uint256",
          "name": "",
          "type": "uint256"
        }
      ],
      "stateMutability": "view",
      "type": "function"
    },
    {
      "inputs": [
        {
          "internalType": "address",
          "name": "addr",
          "type": "address"
        }
      ],
      "name": "getRequesterBalance",
      "outputs": [
        {
          "internalType": "uint256",
          "name": "",
          "type": "uint256"
        }
      ],
      "stateMutability": "view",
      "type": "function"
    },
    {
      "inputs": [
        {
          "internalType": "address",
          "name": "_autographContract",
          "type": "address"
        }
      ],
      "name": "initialize",
      "outputs": [],
      "stateMutability": "nonpayable",
      "type": "function"
    },
    {
      "inputs": [
        {
          "internalType": "uint256",
          "name": "id",
          "type": "uint256"
        },
        {
          "internalType": "address[]",
          "name": "signers",
          "type": "address[]"
        },
        {
          "internalType": "string",
          "name": "imageURI",
          "type": "string"
        },
        {
          "internalType": "string",
          "name": "metadataURI",
          "type": "string"
        }
      ],
      "name": "mintRequest",
      "outputs": [],
      "stateMutability": "nonpayable",
      "type": "function"
    },
    {
      "inputs": [],
      "name": "numRequests",
      "outputs": [
        {
          "internalType": "uint256",
          "name": "",
          "type": "uint256"
        }
      ],
      "stateMutability": "view",
      "type": "function"
    },
    {
      "inputs": [],
      "name": "numberOfPendingRequests",
      "outputs": [
        {
          "internalType": "uint256",
          "name": "",
          "type": "uint256"
        }
      ],
      "stateMutability": "view",
      "type": "function"
    },
    {
      "inputs": [],
      "name": "owner",
      "outputs": [
        {
          "internalType": "address",
          "name": "",
          "type": "address"
        }
      ],
      "stateMutability": "view",
      "type": "function"
    },
    {
      "inputs": [],
      "name": "renounceOwnership",
      "outputs": [],
      "stateMutability": "nonpayable",
      "type": "function"
    },
    {
      "inputs": [
        {
          "internalType": "uint256",
          "name": "id",
          "type": "uint256"
        }
      ],
      "name": "requestIsLocked",
      "outputs": [
        {
          "internalType": "bool",
          "name": "",
          "type": "bool"
        }
      ],
      "stateMutability": "view",
      "type": "function"
    },
    {
      "inputs": [
        {
          "internalType": "uint256",
          "name": "",
          "type": "uint256"
        }
      ],
      "name": "requests",
      "outputs": [
        {
          "internalType": "address",
          "name": "from",
          "type": "address"
        },
        {
          "internalType": "uint256",
          "name": "price",
          "type": "uint256"
        },
        {
          "internalType": "uint256",
          "name": "responseTime",
          "type": "uint256"
        },
        {
          "internalType": "uint256",
          "name": "created",
          "type": "uint256"
        }
      ],
      "stateMutability": "view",
      "type": "function"
    },
    {
      "inputs": [
        {
          "internalType": "uint256",
          "name": "_feePercent",
          "type": "uint256"
        }
      ],
      "name": "setFeePercent",
      "outputs": [],
      "stateMutability": "nonpayable",
      "type": "function"
    },
    {
      "inputs": [
        {
          "internalType": "address payable",
          "name": "_addr",
          "type": "address"
        }
      ],
      "name": "setWallet",
      "outputs": [],
      "stateMutability": "nonpayable",
      "type": "function"
    },
    {
      "inputs": [
        {
          "internalType": "address",
          "name": "newOwner",
          "type": "address"
        }
      ],
      "name": "transferOwnership",
      "outputs": [],
      "stateMutability": "nonpayable",
      "type": "function"
    },
    {
      "inputs": [],
      "name": "wallet",
      "outputs": [
        {
          "internalType": "address payable",
          "name": "",
          "type": "address"
        }
      ],
      "stateMutability": "view",
      "type": "function"
    }
  ],
  "bytecode": "0x608060405234801561001057600080fd5b50612a40806100206000396000f3fe6080604052600436106100fe5760003560e01c806381d12c5811610095578063cb74db1111610064578063cb74db1114610307578063deaa59df14610344578063e0c1042d1461036d578063e9a21bcd14610396578063f2fde38b146103bf576100fe565b806381d12c58146102485780638da5cb5b146102885780639fb42b1f146102b3578063c4d66de8146102de576100fe565b806367458071116100d157806367458071146101c1578063715018a6146101dd5780637ce3489b146101f45780637fd6f15c1461021d576100fe565b806312065fe0146101035780633acd14941461012e578063521eb2731461016b578063670b149914610196575b600080fd5b34801561010f57600080fd5b506101186103e8565b6040516101259190612522565b60405180910390f35b34801561013a57600080fd5b5061015560048036038101906101509190611ca2565b6103f0565b6040516101629190612522565b60405180910390f35b34801561017757600080fd5b506101806104a7565b60405161018d919061230d565b60405180910390f35b3480156101a257600080fd5b506101ab6104cd565b6040516101b89190612522565b60405180910390f35b6101db60048036038101906101d69190611d1d565b6104d3565b005b3480156101e957600080fd5b506101f261080e565b005b34801561020057600080fd5b5061021b60048036038101906102169190611d71565b61094b565b005b34801561022957600080fd5b50610232610a0a565b60405161023f9190612522565b60405180910390f35b34801561025457600080fd5b5061026f600480360381019061026a9190611d71565b610a10565b60405161027f9493929190612382565b60405180910390f35b34801561029457600080fd5b5061029d610a60565b6040516102aa91906122f2565b60405180910390f35b3480156102bf57600080fd5b506102c8610a8a565b6040516102d59190612522565b60405180910390f35b3480156102ea57600080fd5b5061030560048036038101906103009190611ca2565b610a90565b005b34801561031357600080fd5b5061032e60048036038101906103299190611d71565b610c03565b60405161033b91906123c7565b60405180910390f35b34801561035057600080fd5b5061036b60048036038101906103669190611cf4565b610c47565b005b34801561037957600080fd5b50610394600480360381019061038f9190611dc3565b610d6c565b005b3480156103a257600080fd5b506103bd60048036038101906103b89190611d71565b61139a565b005b3480156103cb57600080fd5b506103e660048036038101906103e19190611ca2565b611643565b005b600047905090565b60003373ffffffffffffffffffffffffffffffffffffffff168273ffffffffffffffffffffffffffffffffffffffff1614610460576040517f08c379a000000000000000000000000000000000000000000000000000000000815260040161045790612422565b60405180910390fd5b606760003373ffffffffffffffffffffffffffffffffffffffff1673ffffffffffffffffffffffffffffffffffffffff168152602001908152602001600020549050919050565b606b60009054906101000a900473ffffffffffffffffffffffffffffffffffffffff1681565b60695481565b60003411610516576040517f08c379a000000000000000000000000000000000000000000000000000000000815260040161050d906124c2565b60405180910390fd5b60006066600060685481526020019081526020016000209050338160000160006101000a81548173ffffffffffffffffffffffffffffffffffffffff021916908373ffffffffffffffffffffffffffffffffffffffff16021790555034816002018190555081816003018190555042816004018190555060005b83518110156106f657600073ffffffffffffffffffffffffffffffffffffffff168482815181106105ea577f4e487b7100000000000000000000000000000000000000000000000000000000600052603260045260246000fd5b602002602001015173ffffffffffffffffffffffffffffffffffffffff161415610649576040517f08c379a000000000000000000000000000000000000000000000000000000000815260040161064090612502565b60405180910390fd5b600182600101600086848151811061068a577f4e487b7100000000000000000000000000000000000000000000000000000000600052603260045260246000fd5b602002602001015173ffffffffffffffffffffffffffffffffffffffff1673ffffffffffffffffffffffffffffffffffffffff16815260200190815260200160002060006101000a81548160ff02191690831515021790555080806106ee906128de565b915050610590565b5060016068600082825461070a919061272d565b92505081905550600160696000828254610724919061272d565b9250508190555034606760003373ffffffffffffffffffffffffffffffffffffffff1673ffffffffffffffffffffffffffffffffffffffff168152602001908152602001600020600082825461077a919061272d565b925050819055508060000160009054906101000a900473ffffffffffffffffffffffffffffffffffffffff1673ffffffffffffffffffffffffffffffffffffffff167f947d7dc29d7c51bd911ec2fe662b3efbef6fe16a99309dbb3c95fa052ca9fb2b6068548584600201548560030154866004015460405161080195949392919061253d565b60405180910390a2505050565b6108166117ef565b73ffffffffffffffffffffffffffffffffffffffff16610834610a60565b73ffffffffffffffffffffffffffffffffffffffff161461088a576040517f08c379a000000000000000000000000000000000000000000000000000000000815260040161088190612462565b60405180910390fd5b600073ffffffffffffffffffffffffffffffffffffffff16603360009054906101000a900473ffffffffffffffffffffffffffffffffffffffff1673ffffffffffffffffffffffffffffffffffffffff167f8be0079c531659141344cd1fd0a4f28419497f9722a3daafe3b4186f6b6457e060405160405180910390a36000603360006101000a81548173ffffffffffffffffffffffffffffffffffffffff021916908373ffffffffffffffffffffffffffffffffffffffff160217905550565b6109536117ef565b73ffffffffffffffffffffffffffffffffffffffff16610971610a60565b73ffffffffffffffffffffffffffffffffffffffff16146109c7576040517f08c379a00000000000000000000000000000000000000000000000000000000081526004016109be90612462565b60405180910390fd5b80606a819055507f91955c12515f4eb8f1ff79df82d1933ff11b6d3b9a3019c6568840616ec36a74606a546040516109ff9190612522565b60405180910390a150565b606a5481565b60666020528060005260406000206000915090508060000160009054906101000a900473ffffffffffffffffffffffffffffffffffffffff16908060020154908060030154908060040154905084565b6000603360009054906101000a900473ffffffffffffffffffffffffffffffffffffffff16905090565b60685481565b600060019054906101000a900460ff1680610ab6575060008054906101000a900460ff16155b610af5576040517f08c379a0000000000000000000000000000000000000000000000000000000008152600401610aec90612442565b60405180910390fd5b60008060019054906101000a900460ff161590508015610b45576001600060016101000a81548160ff02191690831515021790555060016000806101000a81548160ff0219169083151502179055505b610b4d6117f7565b81606560006101000a81548173ffffffffffffffffffffffffffffffffffffffff021916908373ffffffffffffffffffffffffffffffffffffffff160217905550610b96610a60565b606b60006101000a81548173ffffffffffffffffffffffffffffffffffffffff021916908373ffffffffffffffffffffffffffffffffffffffff160217905550600a606a819055508015610bff5760008060016101000a81548160ff0219169083151502179055505b5050565b600080606660008481526020019081526020016000209050620151808160030154610c2e91906127b4565b8160040154610c3d919061272d565b4210915050919050565b610c4f6117ef565b73ffffffffffffffffffffffffffffffffffffffff16610c6d610a60565b73ffffffffffffffffffffffffffffffffffffffff1614610cc3576040517f08c379a0000000000000000000000000000000000000000000000000000000008152600401610cba90612462565b60405180910390fd5b80606b60006101000a81548173ffffffffffffffffffffffffffffffffffffffff021916908373ffffffffffffffffffffffffffffffffffffffff160217905550606b60009054906101000a900473ffffffffffffffffffffffffffffffffffffffff1673ffffffffffffffffffffffffffffffffffffffff167f3ce716f94fe275e52428cbf6b7f388e5a65976d4edabc34355a77f5e89655bdc60405160405180910390a250565b60006066600086815260200190815260200160002090508060010160003373ffffffffffffffffffffffffffffffffffffffff1673ffffffffffffffffffffffffffffffffffffffff16815260200190815260200160002060009054906101000a900460ff1680610e0f5750610de0610a60565b73ffffffffffffffffffffffffffffffffffffffff163373ffffffffffffffffffffffffffffffffffffffff16145b610e4e576040517f08c379a0000000000000000000000000000000000000000000000000000000008152600401610e45906124e2565b60405180910390fd5b8060020154471015610e95576040517f08c379a0000000000000000000000000000000000000000000000000000000008152600401610e8c906123e2565b60405180910390fd5b6000606560009054906101000a900473ffffffffffffffffffffffffffffffffffffffff1673ffffffffffffffffffffffffffffffffffffffff16631ffbb6aa8360000160009054906101000a900473ffffffffffffffffffffffffffffffffffffffff168787876040518563ffffffff1660e01b8152600401610f1c9493929190612328565b602060405180830381600087803b158015610f3657600080fd5b505af1158015610f4a573d6000803e3d6000fd5b505050506040513d601f19601f82011682018060405250810190610f6e9190611d9a565b90508160000160009054906101000a900473ffffffffffffffffffffffffffffffffffffffff1673ffffffffffffffffffffffffffffffffffffffff16606560009054906101000a900473ffffffffffffffffffffffffffffffffffffffff1673ffffffffffffffffffffffffffffffffffffffff16636352211e836040518263ffffffff1660e01b81526004016110069190612522565b60206040518083038186803b15801561101e57600080fd5b505afa158015611032573d6000803e3d6000fd5b505050506040513d601f19601f820116820180604052508101906110569190611ccb565b73ffffffffffffffffffffffffffffffffffffffff16146110ac576040517f08c379a00000000000000000000000000000000000000000000000000000000081526004016110a3906124a2565b60405180910390fd5b60006064606a5484600201546110c291906127b4565b6110cc9190612783565b9050606b60009054906101000a900473ffffffffffffffffffffffffffffffffffffffff1673ffffffffffffffffffffffffffffffffffffffff166108fc829081150290604051600060405180830381858888f19350505050158015611136573d6000803e3d6000fd5b506000865182856002015461114b919061280e565b6111559190612783565b905060005b875181101561120357600088828151811061119e577f4e487b7100000000000000000000000000000000000000000000000000000000600052603260045260246000fd5b602002602001015190508073ffffffffffffffffffffffffffffffffffffffff166108fc849081150290604051600060405180830381858888f193505050501580156111ee573d6000803e3d6000fd5b505080806111fb906128de565b91505061115a565b508360020154606760008660000160009054906101000a900473ffffffffffffffffffffffffffffffffffffffff1673ffffffffffffffffffffffffffffffffffffffff1673ffffffffffffffffffffffffffffffffffffffff168152602001908152602001600020600082825461127b919061280e565b9250508190555060666000898152602001908152602001600020600080820160006101000a81549073ffffffffffffffffffffffffffffffffffffffff021916905560028201600090556003820160009055600482016000905550506001606960008282546112ea919061280e565b925050819055503373ffffffffffffffffffffffffffffffffffffffff168460000160009054906101000a900473ffffffffffffffffffffffffffffffffffffffff1673ffffffffffffffffffffffffffffffffffffffff167fd7434c058ca37b3bb223743dc881f8e1672a59d4c3271cb6e5a66536c652c8038a8760020154886003015489600401548c8c604051611388969594939291906125dc565b60405180910390a35050505050505050565b60006066600083815260200190815260200160002090503373ffffffffffffffffffffffffffffffffffffffff168160000160009054906101000a900473ffffffffffffffffffffffffffffffffffffffff1673ffffffffffffffffffffffffffffffffffffffff1614611443576040517f08c379a000000000000000000000000000000000000000000000000000000000815260040161143a90612422565b60405180910390fd5b62015180816003015461145691906127b4565b8160040154611465919061272d565b4210156114a7576040517f08c379a000000000000000000000000000000000000000000000000000000000815260040161149e90612482565b60405180910390fd5b3373ffffffffffffffffffffffffffffffffffffffff166108fc82600201549081150290604051600060405180830381858888f193505050501580156114f1573d6000803e3d6000fd5b508060020154606760003373ffffffffffffffffffffffffffffffffffffffff1673ffffffffffffffffffffffffffffffffffffffff1681526020019081526020016000206000828254611545919061280e565b9250508190555060666000838152602001908152602001600020600080820160006101000a81549073ffffffffffffffffffffffffffffffffffffffff021916905560028201600090556003820160009055600482016000905550506001606960008282546115b4919061280e565b925050819055508060000160009054906101000a900473ffffffffffffffffffffffffffffffffffffffff1673ffffffffffffffffffffffffffffffffffffffff167fa38ed1dee618f695ba023eb61bb9afeea56241145c703fb3cf125371ffbc63f6838360020154846003015485600401546040516116379493929190612597565b60405180910390a25050565b61164b6117ef565b73ffffffffffffffffffffffffffffffffffffffff16611669610a60565b73ffffffffffffffffffffffffffffffffffffffff16146116bf576040517f08c379a00000000000000000000000000000000000000000000000000000000081526004016116b690612462565b60405180910390fd5b600073ffffffffffffffffffffffffffffffffffffffff168173ffffffffffffffffffffffffffffffffffffffff16141561172f576040517f08c379a000000000000000000000000000000000000000000000000000000000815260040161172690612402565b60405180910390fd5b8073ffffffffffffffffffffffffffffffffffffffff16603360009054906101000a900473ffffffffffffffffffffffffffffffffffffffff1673ffffffffffffffffffffffffffffffffffffffff167f8be0079c531659141344cd1fd0a4f28419497f9722a3daafe3b4186f6b6457e060405160405180910390a380603360006101000a81548173ffffffffffffffffffffffffffffffffffffffff021916908373ffffffffffffffffffffffffffffffffffffffff16021790555050565b600033905090565b600060019054906101000a900460ff168061181d575060008054906101000a900460ff16155b61185c576040517f08c379a000000000000000000000000000000000000000000000000000000000815260040161185390612442565b60405180910390fd5b60008060019054906101000a900460ff1615905080156118ac576001600060016101000a81548160ff02191690831515021790555060016000806101000a81548160ff0219169083151502179055505b6118b46118e0565b6118bc6119b9565b80156118dd5760008060016101000a81548160ff0219169083151502179055505b50565b600060019054906101000a900460ff1680611906575060008054906101000a900460ff16155b611945576040517f08c379a000000000000000000000000000000000000000000000000000000000815260040161193c90612442565b60405180910390fd5b60008060019054906101000a900460ff161590508015611995576001600060016101000a81548160ff02191690831515021790555060016000806101000a81548160ff0219169083151502179055505b80156119b65760008060016101000a81548160ff0219169083151502179055505b50565b600060019054906101000a900460ff16806119df575060008054906101000a900460ff16155b611a1e576040517f08c379a0000000000000000000000000000000000000000000000000000000008152600401611a1590612442565b60405180910390fd5b60008060019054906101000a900460ff161590508015611a6e576001600060016101000a81548160ff02191690831515021790555060016000806101000a81548160ff0219169083151502179055505b6000611a786117ef565b905080603360006101000a81548173ffffffffffffffffffffffffffffffffffffffff021916908373ffffffffffffffffffffffffffffffffffffffff1602179055508073ffffffffffffffffffffffffffffffffffffffff16600073ffffffffffffffffffffffffffffffffffffffff167f8be0079c531659141344cd1fd0a4f28419497f9722a3daafe3b4186f6b6457e060405160405180910390a3508015611b385760008060016101000a81548160ff0219169083151502179055505b50565b6000611b4e611b498461267c565b61264b565b90508083825260208201905082856020860282011115611b6d57600080fd5b60005b85811015611b9d5781611b838882611be5565b845260208401935060208301925050600181019050611b70565b5050509392505050565b6000611bba611bb5846126a8565b61264b565b905082815260208101848484011115611bd257600080fd5b611bdd84828561289c565b509392505050565b600081359050611bf4816129c5565b92915050565b600081519050611c09816129c5565b92915050565b600081359050611c1e816129dc565b92915050565b600082601f830112611c3557600080fd5b8135611c45848260208601611b3b565b91505092915050565b600082601f830112611c5f57600080fd5b8135611c6f848260208601611ba7565b91505092915050565b600081359050611c87816129f3565b92915050565b600081519050611c9c816129f3565b92915050565b600060208284031215611cb457600080fd5b6000611cc284828501611be5565b91505092915050565b600060208284031215611cdd57600080fd5b6000611ceb84828501611bfa565b91505092915050565b600060208284031215611d0657600080fd5b6000611d1484828501611c0f565b91505092915050565b60008060408385031215611d3057600080fd5b600083013567ffffffffffffffff811115611d4a57600080fd5b611d5685828601611c24565b9250506020611d6785828601611c78565b9150509250929050565b600060208284031215611d8357600080fd5b6000611d9184828501611c78565b91505092915050565b600060208284031215611dac57600080fd5b6000611dba84828501611c8d565b91505092915050565b60008060008060808587031215611dd957600080fd5b6000611de787828801611c78565b945050602085013567ffffffffffffffff811115611e0457600080fd5b611e1087828801611c24565b935050604085013567ffffffffffffffff811115611e2d57600080fd5b611e3987828801611c4e565b925050606085013567ffffffffffffffff811115611e5657600080fd5b611e6287828801611c4e565b91505092959194509250565b6000611e7a8383611e95565b60208301905092915050565b611e8f81612854565b82525050565b611e9e81612842565b82525050565b611ead81612842565b82525050565b6000611ebe826126e8565b611ec8818561270b565b9350611ed3836126d8565b8060005b83811015611f04578151611eeb8882611e6e565b9750611ef6836126fe565b925050600181019050611ed7565b5085935050505092915050565b611f1a81612866565b82525050565b6000611f2b826126f3565b611f35818561271c565b9350611f458185602086016128ab565b611f4e816129b4565b840191505092915050565b6000611f66602c8361271c565b91507f42616c616e63652073686f756c642062652067726561746572207468616e207260008301527f65717565737420707269636500000000000000000000000000000000000000006020830152604082019050919050565b6000611fcc60268361271c565b91507f4f776e61626c653a206e6577206f776e657220697320746865207a65726f206160008301527f64647265737300000000000000000000000000000000000000000000000000006020830152604082019050919050565b600061203260248361271c565b91507f596f7520617265206e6f7420746865206f776e6572206f66207468652072657160008301527f75657374000000000000000000000000000000000000000000000000000000006020830152604082019050919050565b6000612098602e8361271c565b91507f496e697469616c697a61626c653a20636f6e747261637420697320616c72656160008301527f647920696e697469616c697a65640000000000000000000000000000000000006020830152604082019050919050565b60006120fe60208361271c565b91507f4f776e61626c653a2063616c6c6572206973206e6f7420746865206f776e65726000830152602082019050919050565b600061213e60368361271c565b91507f596f75206d75737420776169742074686520726573706f6e73652074696d652060008301527f746f2064656c65746520746869732072657175657374000000000000000000006020830152604082019050919050565b60006121a4601f8361271c565b91507f546f6b656e20776173206e6f74206372656174656420636f72726563746c79006000830152602082019050919050565b60006121e460228361271c565b91507f53656e7420616d6f756e74206d7573742062652067726561746572207468616e60008301527f20300000000000000000000000000000000000000000000000000000000000006020830152604082019050919050565b600061224a60238361271c565b91507f596f7520617265206e6f7420616e206f776e6572206f6620746865207265717560008301527f65737400000000000000000000000000000000000000000000000000000000006020830152604082019050919050565b60006122b0601b8361271c565b91507f412076616c6964206164647265737320697320726571756972656400000000006000830152602082019050919050565b6122ec81612892565b82525050565b60006020820190506123076000830184611ea4565b92915050565b60006020820190506123226000830184611e86565b92915050565b600060808201905061233d6000830187611ea4565b818103602083015261234f8186611eb3565b905081810360408301526123638185611f20565b905081810360608301526123778184611f20565b905095945050505050565b60006080820190506123976000830187611ea4565b6123a460208301866122e3565b6123b160408301856122e3565b6123be60608301846122e3565b95945050505050565b60006020820190506123dc6000830184611f11565b92915050565b600060208201905081810360008301526123fb81611f59565b9050919050565b6000602082019050818103600083015261241b81611fbf565b9050919050565b6000602082019050818103600083015261243b81612025565b9050919050565b6000602082019050818103600083015261245b8161208b565b9050919050565b6000602082019050818103600083015261247b816120f1565b9050919050565b6000602082019050818103600083015261249b81612131565b9050919050565b600060208201905081810360008301526124bb81612197565b9050919050565b600060208201905081810360008301526124db816121d7565b9050919050565b600060208201905081810360008301526124fb8161223d565b9050919050565b6000602082019050818103600083015261251b816122a3565b9050919050565b600060208201905061253760008301846122e3565b92915050565b600060a08201905061255260008301886122e3565b81810360208301526125648187611eb3565b905061257360408301866122e3565b61258060608301856122e3565b61258d60808301846122e3565b9695505050505050565b60006080820190506125ac60008301876122e3565b6125b960208301866122e3565b6125c660408301856122e3565b6125d360608301846122e3565b95945050505050565b600060c0820190506125f160008301896122e3565b6125fe60208301886122e3565b61260b60408301876122e3565b61261860608301866122e3565b818103608083015261262a8185611f20565b905081810360a083015261263e8184611f20565b9050979650505050505050565b6000604051905081810181811067ffffffffffffffff8211171561267257612671612985565b5b8060405250919050565b600067ffffffffffffffff82111561269757612696612985565b5b602082029050602081019050919050565b600067ffffffffffffffff8211156126c3576126c2612985565b5b601f19601f8301169050602081019050919050565b6000819050602082019050919050565b600081519050919050565b600081519050919050565b6000602082019050919050565b600082825260208201905092915050565b600082825260208201905092915050565b600061273882612892565b915061274383612892565b9250827fffffffffffffffffffffffffffffffffffffffffffffffffffffffffffffffff0382111561277857612777612927565b5b828201905092915050565b600061278e82612892565b915061279983612892565b9250826127a9576127a8612956565b5b828204905092915050565b60006127bf82612892565b91506127ca83612892565b9250817fffffffffffffffffffffffffffffffffffffffffffffffffffffffffffffffff048311821515161561280357612802612927565b5b828202905092915050565b600061281982612892565b915061282483612892565b92508282101561283757612836612927565b5b828203905092915050565b600061284d82612872565b9050919050565b600061285f82612872565b9050919050565b60008115159050919050565b600073ffffffffffffffffffffffffffffffffffffffff82169050919050565b6000819050919050565b82818337600083830152505050565b60005b838110156128c95780820151818401526020810190506128ae565b838111156128d8576000848401525b50505050565b60006128e982612892565b91507fffffffffffffffffffffffffffffffffffffffffffffffffffffffffffffffff82141561291c5761291b612927565b5b600182019050919050565b7f4e487b7100000000000000000000000000000000000000000000000000000000600052601160045260246000fd5b7f4e487b7100000000000000000000000000000000000000000000000000000000600052601260045260246000fd5b7f4e487b7100000000000000000000000000000000000000000000000000000000600052604160045260246000fd5b6000601f19601f8301169050919050565b6129ce81612842565b81146129d957600080fd5b50565b6129e581612854565b81146129f057600080fd5b50565b6129fc81612892565b8114612a0757600080fd5b5056fea264697066735822122052a4f287e2fdc7fcdbde812040433dac4cea2bc28364cf53d419c6cb84195d4464736f6c63430008000033",
  "linkReferences": {},
  "deployedLinkReferences": {}
}