{
  "_format": "hh-sol-artifact-1",
  "contractName": "RequestContract",
  "sourceName": "contracts/RequestContract.sol",
  "abi": [
    {
      "anonymous": false,
      "inputs": [
        {
          "indexed": false,
          "internalType": "uint256",
          "name": "feePercent",
          "type": "uint256"
        }
      ],
      "name": "FeePercentChanged",
      "type": "event"
    },
    {
      "anonymous": false,
      "inputs": [
        {
          "indexed": true,
          "internalType": "address",
          "name": "previousOwner",
          "type": "address"
        },
        {
          "indexed": true,
          "internalType": "address",
          "name": "newOwner",
          "type": "address"
        }
      ],
      "name": "OwnershipTransferred",
      "type": "event"
    },
    {
      "anonymous": false,
      "inputs": [
        {
          "indexed": false,
          "internalType": "uint256",
          "name": "id",
          "type": "uint256"
        },
        {
          "indexed": true,
          "internalType": "address",
          "name": "from",
          "type": "address"
        },
        {
          "indexed": false,
          "internalType": "address[]",
          "name": "to",
          "type": "address[]"
        },
        {
          "indexed": false,
          "internalType": "uint256",
          "name": "price",
          "type": "uint256"
        },
        {
          "indexed": false,
          "internalType": "uint256",
          "name": "responseTime",
          "type": "uint256"
        },
        {
          "indexed": false,
          "internalType": "uint256",
          "name": "created",
          "type": "uint256"
        }
      ],
      "name": "RequestCreated",
      "type": "event"
    },
    {
      "anonymous": false,
      "inputs": [
        {
          "indexed": false,
          "internalType": "uint256",
          "name": "id",
          "type": "uint256"
        },
        {
          "indexed": true,
          "internalType": "address",
          "name": "from",
          "type": "address"
        },
        {
          "indexed": false,
          "internalType": "uint256",
          "name": "price",
          "type": "uint256"
        },
        {
          "indexed": false,
          "internalType": "uint256",
          "name": "responseTime",
          "type": "uint256"
        },
        {
          "indexed": false,
          "internalType": "uint256",
          "name": "created",
          "type": "uint256"
        }
      ],
      "name": "RequestDeleted",
      "type": "event"
    },
    {
      "anonymous": false,
      "inputs": [
        {
          "indexed": false,
          "internalType": "uint256",
          "name": "id",
          "type": "uint256"
        },
        {
          "indexed": true,
          "internalType": "address",
          "name": "from",
          "type": "address"
        },
        {
          "indexed": true,
          "internalType": "address",
          "name": "to",
          "type": "address"
        },
        {
          "indexed": false,
          "internalType": "uint256",
          "name": "price",
          "type": "uint256"
        },
        {
          "indexed": false,
          "internalType": "uint256",
          "name": "responseTime",
          "type": "uint256"
        },
        {
          "indexed": false,
          "internalType": "uint256",
          "name": "created",
          "type": "uint256"
        },
        {
          "indexed": false,
          "internalType": "string",
          "name": "imageURI",
          "type": "string"
        },
        {
          "indexed": false,
          "internalType": "string",
          "name": "metadataURI",
          "type": "string"
        }
      ],
      "name": "RequestMinted",
      "type": "event"
    },
    {
      "anonymous": false,
      "inputs": [
        {
          "indexed": true,
          "internalType": "address",
          "name": "addr",
          "type": "address"
        }
      ],
      "name": "WalletChanged",
      "type": "event"
    },
    {
      "inputs": [
        {
          "internalType": "address[]",
          "name": "signers",
          "type": "address[]"
        },
        {
          "internalType": "uint256",
          "name": "responseTime",
          "type": "uint256"
        }
      ],
      "name": "createRequest",
      "outputs": [],
      "stateMutability": "payable",
      "type": "function"
    },
    {
      "inputs": [
        {
          "internalType": "uint256",
          "name": "id",
          "type": "uint256"
        }
      ],
      "name": "deleteRequest",
      "outputs": [],
      "stateMutability": "nonpayable",
      "type": "function"
    },
    {
      "inputs": [],
      "name": "feePercent",
      "outputs": [
        {
          "internalType": "uint256",
          "name": "",
          "type": "uint256"
        }
      ],
      "stateMutability": "view",
      "type": "function"
    },
    {
      "inputs": [],
      "name": "getBalance",
      "outputs": [
        {
          "internalType": "uint256",
          "name": "",
          "type": "uint256"
        }
      ],
      "stateMutability": "view",
      "type": "function"
    },
    {
      "inputs": [
        {
          "internalType": "address",
          "name": "addr",
          "type": "address"
        }
      ],
      "name": "getRequesterBalance",
      "outputs": [
        {
          "internalType": "uint256",
          "name": "",
          "type": "uint256"
        }
      ],
      "stateMutability": "view",
      "type": "function"
    },
    {
      "inputs": [
        {
          "internalType": "address",
          "name": "_autographContract",
          "type": "address"
        }
      ],
      "name": "initialize",
      "outputs": [],
      "stateMutability": "nonpayable",
      "type": "function"
    },
    {
      "inputs": [
        {
          "internalType": "uint256",
          "name": "id",
          "type": "uint256"
        },
        {
          "internalType": "address[]",
          "name": "signers",
          "type": "address[]"
        },
        {
          "internalType": "string",
          "name": "imageURI",
          "type": "string"
        },
        {
          "internalType": "string",
          "name": "metadataURI",
          "type": "string"
        }
      ],
      "name": "mintRequest",
      "outputs": [],
      "stateMutability": "nonpayable",
      "type": "function"
    },
    {
      "inputs": [],
      "name": "numRequests",
      "outputs": [
        {
          "internalType": "uint256",
          "name": "",
          "type": "uint256"
        }
      ],
      "stateMutability": "view",
      "type": "function"
    },
    {
      "inputs": [],
      "name": "numberOfPendingRequests",
      "outputs": [
        {
          "internalType": "uint256",
          "name": "",
          "type": "uint256"
        }
      ],
      "stateMutability": "view",
      "type": "function"
    },
    {
      "inputs": [],
      "name": "owner",
      "outputs": [
        {
          "internalType": "address",
          "name": "",
          "type": "address"
        }
      ],
      "stateMutability": "view",
      "type": "function"
    },
    {
      "inputs": [],
      "name": "renounceOwnership",
      "outputs": [],
      "stateMutability": "nonpayable",
      "type": "function"
    },
    {
      "inputs": [
        {
          "internalType": "uint256",
          "name": "id",
          "type": "uint256"
        }
      ],
      "name": "requestIsLocked",
      "outputs": [
        {
          "internalType": "bool",
          "name": "",
          "type": "bool"
        }
      ],
      "stateMutability": "view",
      "type": "function"
    },
    {
      "inputs": [
        {
          "internalType": "uint256",
          "name": "",
          "type": "uint256"
        }
      ],
      "name": "requests",
      "outputs": [
        {
          "internalType": "address",
          "name": "from",
          "type": "address"
        },
        {
          "internalType": "uint256",
          "name": "price",
          "type": "uint256"
        },
        {
          "internalType": "uint256",
          "name": "responseTime",
          "type": "uint256"
        },
        {
          "internalType": "uint256",
          "name": "created",
          "type": "uint256"
        }
      ],
      "stateMutability": "view",
      "type": "function"
    },
    {
      "inputs": [
        {
          "internalType": "uint256",
          "name": "_feePercent",
          "type": "uint256"
        }
      ],
      "name": "setFeePercent",
      "outputs": [],
      "stateMutability": "nonpayable",
      "type": "function"
    },
    {
      "inputs": [
        {
          "internalType": "address payable",
          "name": "_addr",
          "type": "address"
        }
      ],
      "name": "setWallet",
      "outputs": [],
      "stateMutability": "nonpayable",
      "type": "function"
    },
    {
      "inputs": [
        {
          "internalType": "address",
          "name": "newOwner",
          "type": "address"
        }
      ],
      "name": "transferOwnership",
      "outputs": [],
      "stateMutability": "nonpayable",
      "type": "function"
    },
    {
      "inputs": [],
      "name": "wallet",
      "outputs": [
        {
          "internalType": "address payable",
          "name": "",
          "type": "address"
        }
      ],
      "stateMutability": "view",
      "type": "function"
    }
  ],
  "bytecode": "0x608060405234801561001057600080fd5b506118a9806100206000396000f3fe6080604052600436106100fe5760003560e01c806381d12c5811610095578063cb74db1111610064578063cb74db111461025e578063deaa59df1461028b578063e0c1042d146102ab578063e9a21bcd146102cb578063f2fde38b146102eb576100fe565b806381d12c58146101e45780638da5cb5b146102145780639fb42b1f14610229578063c4d66de81461023e576100fe565b806367458071116100d15780636745807114610185578063715018a61461019a5780637ce3489b146101af5780637fd6f15c146101cf576100fe565b806312065fe0146101035780633acd14941461012e578063521eb2731461014e578063670b149914610170575b600080fd5b34801561010f57600080fd5b5061011861030b565b60405161012591906116db565b60405180910390f35b34801561013a57600080fd5b5061011861014936600461119a565b61030f565b34801561015a57600080fd5b50610163610357565b6040516101259190611368565b34801561017c57600080fd5b50610118610366565b6101986101933660046111d9565b61036c565b005b3480156101a657600080fd5b50610198610576565b3480156101bb57600080fd5b506101986101ca36600461121c565b6105c1565b3480156101db57600080fd5b50610118610640565b3480156101f057600080fd5b506102046101ff36600461121c565b610646565b60405161012594939291906113d1565b34801561022057600080fd5b50610163610677565b34801561023557600080fd5b50610118610686565b34801561024a57600080fd5b5061019861025936600461119a565b61068c565b34801561026a57600080fd5b5061027e61027936600461121c565b61075a565b60405161012591906113f7565b34801561029757600080fd5b506101986102a636600461119a565b610792565b3480156102b757600080fd5b506101986102c636600461124c565b610821565b3480156102d757600080fd5b506101986102e636600461121c565b610bf1565b3480156102f757600080fd5b5061019861030636600461119a565b610d95565b4790565b60006001600160a01b03821633146103425760405162461bcd60e51b815260040161033990611494565b60405180910390fd5b50503360009081526099602052604090205490565b609d546001600160a01b031681565b609b5481565b6002606554141561038f5760405162461bcd60e51b81526004016103399061166d565b6002606555346103b15760405162461bcd60e51b8152600401610339906115e8565b609a54600090815260986020526040812080546001600160a01b0319163317815534600282015560038101839055426004820155905b83518110156104b65760006001600160a01b031684828151811061041b57634e487b7160e01b600052603260045260246000fd5b60200260200101516001600160a01b0316141561044a5760405162461bcd60e51b8152600401610339906116a4565b600182600101600086848151811061047257634e487b7160e01b600052603260045260246000fd5b6020908102919091018101516001600160a01b03168252810191909152604001600020805460ff1916911515919091179055806104ae81611817565b9150506103e7565b506001609a60008282546104ca91906117a9565b925050819055506001609b60008282546104e491906117a9565b909155505033600090815260996020526040812080543492906105089084906117a9565b90915550508054609a546002830154600384015460048501546040516001600160a01b03909516947f947d7dc29d7c51bd911ec2fe662b3efbef6fe16a99309dbb3c95fa052ca9fb2b946105649490938a9391929091906116e4565b60405180910390a25050600160655550565b61057e610e06565b6001600160a01b031661058f610677565b6001600160a01b0316146105b55760405162461bcd60e51b815260040161033990611526565b6105bf6000610e0a565b565b6105c9610e06565b6001600160a01b03166105da610677565b6001600160a01b0316146106005760405162461bcd60e51b815260040161033990611526565b609c8190556040517f91955c12515f4eb8f1ff79df82d1933ff11b6d3b9a3019c6568840616ec36a74906106359083906116db565b60405180910390a150565b609c5481565b60986020526000908152604090208054600282015460038301546004909301546001600160a01b0390921692909184565b6033546001600160a01b031690565b609a5481565b600054610100900460ff16806106a5575060005460ff16155b6106c15760405162461bcd60e51b8152600401610339906114d8565b600054610100900460ff161580156106ec576000805460ff1961ff0019909116610100171660011790555b6106f4610e5c565b6106fc610ee0565b609780546001600160a01b0319166001600160a01b03841617905561071f610677565b609d80546001600160a01b0319166001600160a01b0392909216919091179055600a609c558015610756576000805461ff00191690555b5050565b6000818152609860205260408120600381015461077a90620151806117e1565b816004015461078991906117a9565b42109392505050565b61079a610e06565b6001600160a01b03166107ab610677565b6001600160a01b0316146107d15760405162461bcd60e51b815260040161033990611526565b609d80546001600160a01b0319166001600160a01b0383811691909117918290556040519116907f3ce716f94fe275e52428cbf6b7f388e5a65976d4edabc34355a77f5e89655bdc90600090a250565b600260655414156108445760405162461bcd60e51b81526004016103399061166d565b60026065556000848152609860209081526040808320338452600181019092529091205460ff168061088e5750610879610677565b6001600160a01b0316336001600160a01b0316145b6108aa5760405162461bcd60e51b81526004016103399061162a565b80600201544710156108ce5760405162461bcd60e51b815260040161033990611402565b6097548154604051630ffddb5560e11b81526000926001600160a01b0390811692631ffbb6aa9261090b929091169089908990899060040161137c565b602060405180830381600087803b15801561092557600080fd5b505af1158015610939573d6000803e3d6000fd5b505050506040513d601f19601f8201168201806040525081019061095d9190611234565b82546097546040516331a9108f60e11b81529293506001600160a01b0391821692911690636352211e906109959085906004016116db565b60206040518083038186803b1580156109ad57600080fd5b505afa1580156109c1573d6000803e3d6000fd5b505050506040513d601f19601f820116820180604052508101906109e591906111bd565b6001600160a01b031614610a0b5760405162461bcd60e51b8152600401610339906115b1565b60006064609c548460020154610a2191906117e1565b610a2b91906117c1565b609d546040519192506001600160a01b03169082156108fc029083906000818181858888f19350505050158015610a66573d6000803e3d6000fd5b5060008651828560020154610a7b9190611800565b610a8591906117c1565b905060005b8751811015610b0d576000888281518110610ab557634e487b7160e01b600052603260045260246000fd5b60200260200101519050806001600160a01b03166108fc849081150290604051600060405180830381858888f19350505050158015610af8573d6000803e3d6000fd5b50508080610b0590611817565b915050610a8a565b50600284015484546001600160a01b031660009081526099602052604081208054909190610b3c908490611800565b9091555050600088815260986020526040812080546001600160a01b03191681556002810182905560038101829055600401819055609b805460019290610b84908490611800565b9091555050835460028501546003860154600487015460405133946001600160a01b0316937fd7434c058ca37b3bb223743dc881f8e1672a59d4c3271cb6e5a66536c652c80393610bda938f938e908e90611735565b60405180910390a350506001606555505050505050565b60026065541415610c145760405162461bcd60e51b81526004016103399061166d565b6002606555600081815260986020526040902080546001600160a01b03163314610c505760405162461bcd60e51b815260040161033990611494565b6003810154610c6290620151806117e1565b8160040154610c7191906117a9565b421015610c905760405162461bcd60e51b81526004016103399061155b565b60028101543360009081526099602052604081208054909190610cb4908490611800565b90915550506002810154604051339180156108fc02916000818181858888f19350505050158015610ce9573d6000803e3d6000fd5b50600082815260986020526040812080546001600160a01b03191681556002810182905560038101829055600401819055609b805460019290610d2d908490611800565b909155505080546002820154600383015460048401546040516001600160a01b03909416937fa38ed1dee618f695ba023eb61bb9afeea56241145c703fb3cf125371ffbc63f693610d84938893919290919061171a565b60405180910390a250506001606555565b610d9d610e06565b6001600160a01b0316610dae610677565b6001600160a01b031614610dd45760405162461bcd60e51b815260040161033990611526565b6001600160a01b038116610dfa5760405162461bcd60e51b81526004016103399061144e565b610e0381610e0a565b50565b3390565b603380546001600160a01b038381166001600160a01b0319831681179093556040519116919082907f8be0079c531659141344cd1fd0a4f28419497f9722a3daafe3b4186f6b6457e090600090a35050565b600054610100900460ff1680610e75575060005460ff16155b610e915760405162461bcd60e51b8152600401610339906114d8565b600054610100900460ff16158015610ebc576000805460ff1961ff0019909116610100171660011790555b610ec4610f48565b610ecc610fbb565b8015610e03576000805461ff001916905550565b600054610100900460ff1680610ef9575060005460ff16155b610f155760405162461bcd60e51b8152600401610339906114d8565b600054610100900460ff16158015610f40576000805460ff1961ff0019909116610100171660011790555b610ecc61102b565b600054610100900460ff1680610f61575060005460ff16155b610f7d5760405162461bcd60e51b8152600401610339906114d8565b600054610100900460ff16158015610ecc576000805460ff1961ff0019909116610100171660011790558015610e03576000805461ff001916905550565b600054610100900460ff1680610fd4575060005460ff16155b610ff05760405162461bcd60e51b8152600401610339906114d8565b600054610100900460ff1615801561101b576000805460ff1961ff0019909116610100171660011790555b610ecc611026610e06565b610e0a565b600054610100900460ff1680611044575060005460ff16155b6110605760405162461bcd60e51b8152600401610339906114d8565b600054610100900460ff1615801561108b576000805460ff1961ff0019909116610100171660011790555b60016065558015610e03576000805461ff001916905550565b600082601f8301126110b4578081fd5b8135602067ffffffffffffffff8211156110d0576110d0611848565b8082026110de82820161177f565b8381528281019086840183880185018910156110f8578687fd5b8693505b8584101561112357803561110f8161185e565b8352600193909301929184019184016110fc565b50979650505050505050565b600082601f83011261113f578081fd5b813567ffffffffffffffff81111561115957611159611848565b61116c601f8201601f191660200161177f565b818152846020838601011115611180578283fd5b816020850160208301379081016020019190915292915050565b6000602082840312156111ab578081fd5b81356111b68161185e565b9392505050565b6000602082840312156111ce578081fd5b81516111b68161185e565b600080604083850312156111eb578081fd5b823567ffffffffffffffff811115611201578182fd5b61120d858286016110a4565b95602094909401359450505050565b60006020828403121561122d578081fd5b5035919050565b600060208284031215611245578081fd5b5051919050565b60008060008060808587031215611261578182fd5b84359350602085013567ffffffffffffffff8082111561127f578384fd5b61128b888389016110a4565b945060408701359150808211156112a0578384fd5b6112ac8883890161112f565b935060608701359150808211156112c1578283fd5b506112ce8782880161112f565b91505092959194509250565b6000815180845260208085019450808401835b838110156113125781516001600160a01b0316875295820195908201906001016112ed565b509495945050505050565b60008151808452815b8181101561134257602081850181015186830182015201611326565b818111156113535782602083870101525b50601f01601f19169290920160200192915050565b6001600160a01b0391909116815260200190565b6001600160a01b03851681526080602082018190526000906113a0908301866112da565b82810360408401526113b2818661131d565b905082810360608401526113c6818561131d565b979650505050505050565b6001600160a01b0394909416845260208401929092526040830152606082015260800190565b901515815260200190565b6020808252602c908201527f42616c616e63652073686f756c642062652067726561746572207468616e207260408201526b65717565737420707269636560a01b606082015260800190565b60208082526026908201527f4f776e61626c653a206e6577206f776e657220697320746865207a65726f206160408201526564647265737360d01b606082015260800190565b60208082526024908201527f596f7520617265206e6f7420746865206f776e6572206f6620746865207265716040820152631d595cdd60e21b606082015260800190565b6020808252602e908201527f496e697469616c697a61626c653a20636f6e747261637420697320616c72656160408201526d191e481a5b9a5d1a585b1a5e995960921b606082015260800190565b6020808252818101527f4f776e61626c653a2063616c6c6572206973206e6f7420746865206f776e6572604082015260600190565b60208082526036908201527f596f75206d75737420776169742074686520726573706f6e73652074696d65206040820152751d1bc819195b195d19481d1a1a5cc81c995c5d595cdd60521b606082015260800190565b6020808252601f908201527f546f6b656e20776173206e6f74206372656174656420636f72726563746c7900604082015260600190565b60208082526022908201527f53656e7420616d6f756e74206d7573742062652067726561746572207468616e604082015261020360f41b606082015260800190565b60208082526023908201527f596f7520617265206e6f7420616e206f776e6572206f66207468652072657175604082015262195cdd60ea1b606082015260800190565b6020808252601f908201527f5265656e7472616e637947756172643a207265656e7472616e742063616c6c00604082015260600190565b6020808252601b908201527f412076616c696420616464726573732069732072657175697265640000000000604082015260600190565b90815260200190565b600086825260a060208301526116fd60a08301876112da565b604083019590955250606081019290925260809091015292915050565b93845260208401929092526040830152606082015260800190565b600087825286602083015285604083015284606083015260c0608083015261176060c083018561131d565b82810360a0840152611772818561131d565b9998505050505050505050565b60405181810167ffffffffffffffff811182821017156117a1576117a1611848565b604052919050565b600082198211156117bc576117bc611832565b500190565b6000826117dc57634e487b7160e01b81526012600452602481fd5b500490565b60008160001904831182151516156117fb576117fb611832565b500290565b60008282101561181257611812611832565b500390565b600060001982141561182b5761182b611832565b5060010190565b634e487b7160e01b600052601160045260246000fd5b634e487b7160e01b600052604160045260246000fd5b6001600160a01b0381168114610e0357600080fdfea26469706673582212205a589c7a878ee629a85c7ad789f2ed6c385cb64b866305073de845fb828fbcae64736f6c63430008000033",
  "linkReferences": {},
  "deployedLinkReferences": {}
}